{
  "_format": "hh-sol-artifact-1",
  "contractName": "ScholarshipManager",
  "sourceName": "contracts/ScholarshipManager.sol",
  "abi": [
    {
      "inputs": [
        {
          "internalType": "address",
          "name": "_tokenAddress",
          "type": "address"
        }
      ],
      "stateMutability": "nonpayable",
      "type": "constructor"
    },
    {
      "inputs": [
        {
          "internalType": "address",
          "name": "owner",
          "type": "address"
        }
      ],
      "name": "OwnableInvalidOwner",
      "type": "error"
    },
    {
      "inputs": [
        {
          "internalType": "address",
          "name": "account",
          "type": "address"
        }
      ],
      "name": "OwnableUnauthorizedAccount",
      "type": "error"
    },
    {
      "anonymous": false,
      "inputs": [
        {
          "indexed": true,
          "internalType": "uint256",
          "name": "id",
          "type": "uint256"
        },
        {
          "indexed": false,
          "internalType": "uint256",
          "name": "index",
          "type": "uint256"
        },
        {
          "indexed": false,
          "internalType": "address",
          "name": "applicant",
          "type": "address"
        }
      ],
      "name": "ApplicationApproved",
      "type": "event"
    },
    {
      "anonymous": false,
      "inputs": [
        {
          "indexed": true,
          "internalType": "uint256",
          "name": "id",
          "type": "uint256"
        },
        {
          "indexed": true,
          "internalType": "address",
          "name": "applicant",
          "type": "address"
        },
        {
          "indexed": false,
          "internalType": "uint256",
          "name": "index",
          "type": "uint256"
        }
      ],
      "name": "Applied",
      "type": "event"
    },
    {
      "anonymous": false,
      "inputs": [
        {
          "indexed": true,
          "internalType": "address",
          "name": "previousOwner",
          "type": "address"
        },
        {
          "indexed": true,
          "internalType": "address",
          "name": "newOwner",
          "type": "address"
        }
      ],
      "name": "OwnershipTransferred",
      "type": "event"
    },
    {
      "anonymous": false,
      "inputs": [
        {
          "indexed": true,
          "internalType": "uint256",
          "name": "id",
          "type": "uint256"
        },
        {
          "indexed": false,
          "internalType": "uint256",
          "name": "index",
          "type": "uint256"
        },
        {
          "indexed": false,
          "internalType": "address",
          "name": "to",
          "type": "address"
        },
        {
          "indexed": false,
          "internalType": "uint256",
          "name": "amount",
          "type": "uint256"
        }
      ],
      "name": "Paid",
      "type": "event"
    },
    {
      "anonymous": false,
      "inputs": [
        {
          "indexed": true,
          "internalType": "uint256",
          "name": "id",
          "type": "uint256"
        },
        {
          "indexed": false,
          "internalType": "string",
          "name": "title",
          "type": "string"
        },
        {
          "indexed": false,
          "internalType": "uint256",
          "name": "amount",
          "type": "uint256"
        },
        {
          "indexed": false,
          "internalType": "uint256",
          "name": "slots",
          "type": "uint256"
        },
        {
          "indexed": false,
          "internalType": "uint256",
          "name": "deadline",
          "type": "uint256"
        }
      ],
      "name": "ScholarshipCreated",
      "type": "event"
    },
    {
      "inputs": [
        {
          "internalType": "uint256",
          "name": "",
          "type": "uint256"
        },
        {
          "internalType": "uint256",
          "name": "",
          "type": "uint256"
        }
      ],
      "name": "applications",
      "outputs": [
        {
          "internalType": "address",
          "name": "applicant",
          "type": "address"
        },
        {
          "internalType": "string",
          "name": "metadata",
          "type": "string"
        },
        {
          "internalType": "enum ScholarshipManager.Status",
          "name": "status",
          "type": "uint8"
        }
      ],
      "stateMutability": "view",
      "type": "function"
    },
    {
      "inputs": [
        {
          "internalType": "uint256",
          "name": "scholarshipId",
          "type": "uint256"
        },
        {
          "internalType": "string",
          "name": "metadata",
          "type": "string"
        }
      ],
      "name": "applyForScholarship",
      "outputs": [],
      "stateMutability": "nonpayable",
      "type": "function"
    },
    {
      "inputs": [
        {
          "internalType": "uint256",
          "name": "scholarshipId",
          "type": "uint256"
        },
        {
          "internalType": "uint256",
          "name": "index",
          "type": "uint256"
        }
      ],
      "name": "approveApplicant",
      "outputs": [],
      "stateMutability": "nonpayable",
      "type": "function"
    },
    {
      "inputs": [
        {
          "internalType": "string",
          "name": "title",
          "type": "string"
        },
        {
          "internalType": "uint256",
          "name": "amount",
          "type": "uint256"
        },
        {
          "internalType": "uint256",
          "name": "slots",
          "type": "uint256"
        },
        {
          "internalType": "uint256",
          "name": "deadline",
          "type": "uint256"
        },
        {
          "internalType": "string",
          "name": "description",
          "type": "string"
        }
      ],
      "name": "createScholarship",
      "outputs": [],
      "stateMutability": "nonpayable",
      "type": "function"
    },
    {
      "inputs": [],
      "name": "nextScholarshipId",
      "outputs": [
        {
          "internalType": "uint256",
          "name": "",
          "type": "uint256"
        }
      ],
      "stateMutability": "view",
      "type": "function"
    },
    {
      "inputs": [],
      "name": "owner",
      "outputs": [
        {
          "internalType": "address",
          "name": "",
          "type": "address"
        }
      ],
      "stateMutability": "view",
      "type": "function"
    },
    {
      "inputs": [
        {
          "internalType": "uint256",
          "name": "scholarshipId",
          "type": "uint256"
        },
        {
          "internalType": "uint256",
          "name": "index",
          "type": "uint256"
        }
      ],
      "name": "payApplicant",
      "outputs": [],
      "stateMutability": "nonpayable",
      "type": "function"
    },
    {
      "inputs": [],
      "name": "paymentToken",
      "outputs": [
        {
          "internalType": "contract IERC20",
          "name": "",
          "type": "address"
        }
      ],
      "stateMutability": "view",
      "type": "function"
    },
    {
      "inputs": [],
      "name": "renounceOwnership",
      "outputs": [],
      "stateMutability": "nonpayable",
      "type": "function"
    },
    {
      "inputs": [
        {
          "internalType": "uint256",
          "name": "",
          "type": "uint256"
        }
      ],
      "name": "scholarships",
      "outputs": [
        {
          "internalType": "uint256",
          "name": "id",
          "type": "uint256"
        },
        {
          "internalType": "string",
          "name": "title",
          "type": "string"
        },
        {
          "internalType": "uint256",
          "name": "amount",
          "type": "uint256"
        },
        {
          "internalType": "uint256",
          "name": "slots",
          "type": "uint256"
        },
        {
          "internalType": "uint256",
          "name": "filledSlots",
          "type": "uint256"
        },
        {
          "internalType": "uint256",
          "name": "deadline",
          "type": "uint256"
        },
        {
          "internalType": "string",
          "name": "description",
          "type": "string"
        },
        {
          "internalType": "uint256",
          "name": "totalApplicants",
          "type": "uint256"
        }
      ],
      "stateMutability": "view",
      "type": "function"
    },
    {
      "inputs": [
        {
          "internalType": "address",
          "name": "newOwner",
          "type": "address"
        }
      ],
      "name": "transferOwnership",
      "outputs": [],
      "stateMutability": "nonpayable",
      "type": "function"
    }
  ],
  "bytecode": "0x60806040523480156200001157600080fd5b506040516200245c3803806200245c8339818101604052810190620000379190620002bb565b7321143185abb050330f6da0b5c3f1089a0ab6de93600073ffffffffffffffffffffffffffffffffffffffff168173ffffffffffffffffffffffffffffffffffffffff1603620000c15760006040517f1e4fbdf7000000000000000000000000000000000000000000000000000000008152600401620000b89190620002fe565b60405180910390fd5b620000d2816200018d60201b60201c565b50600073ffffffffffffffffffffffffffffffffffffffff168173ffffffffffffffffffffffffffffffffffffffff160362000145576040517f08c379a00000000000000000000000000000000000000000000000000000000081526004016200013c906200037c565b60405180910390fd5b80600160006101000a81548173ffffffffffffffffffffffffffffffffffffffff021916908373ffffffffffffffffffffffffffffffffffffffff160217905550506200039e565b60008060009054906101000a900473ffffffffffffffffffffffffffffffffffffffff169050816000806101000a81548173ffffffffffffffffffffffffffffffffffffffff021916908373ffffffffffffffffffffffffffffffffffffffff1602179055508173ffffffffffffffffffffffffffffffffffffffff168173ffffffffffffffffffffffffffffffffffffffff167f8be0079c531659141344cd1fd0a4f28419497f9722a3daafe3b4186f6b6457e060405160405180910390a35050565b600080fd5b600073ffffffffffffffffffffffffffffffffffffffff82169050919050565b6000620002838262000256565b9050919050565b620002958162000276565b8114620002a157600080fd5b50565b600081519050620002b5816200028a565b92915050565b600060208284031215620002d457620002d362000251565b5b6000620002e484828501620002a4565b91505092915050565b620002f88162000276565b82525050565b6000602082019050620003156000830184620002ed565b92915050565b600082825260208201905092915050565b7f4469612063686920546f6b656e206b686f6e6720686f70206c65000000000000600082015250565b600062000364601a836200031b565b915062000371826200032c565b602082019050919050565b60006020820190508181036000830152620003978162000355565b9050919050565b6120ae80620003ae6000396000f3fe608060405234801561001057600080fd5b50600436106100a95760003560e01c80637a870b63116100715780637a870b63146101455780638da5cb5b14610177578063c6c08a5814610195578063d84c01b3146101b1578063ee0866f4146101cf578063f2fde38b146101eb576100a9565b80633013ce29146100ae57806339dc58c6146100cc5780633a2146b814610103578063715018a61461011f57806372b4f6fe14610129575b600080fd5b6100b6610207565b6040516100c39190611117565b60405180910390f35b6100e660048036038101906100e1919061117c565b61022d565b6040516100fa989796959493929190611248565b60405180910390f35b61011d600480360381019061011891906112d4565b610385565b005b6101276105a6565b005b610143600480360381019061013e91906112d4565b6105ba565b005b61015f600480360381019061015a91906112d4565b610908565b60405161016e939291906113ac565b60405180910390f35b61017f610a04565b60405161018c91906113ea565b60405180910390f35b6101af60048036038101906101aa919061153a565b610a2d565b005b6101b9610c17565b6040516101c69190611596565b60405180910390f35b6101e960048036038101906101e491906115b1565b610c1d565b005b61020560048036038101906102009190611690565b610ebf565b005b600160009054906101000a900473ffffffffffffffffffffffffffffffffffffffff1681565b6003602052806000526040600020600091509050806000015490806001018054610256906116ec565b80601f0160208091040260200160405190810160405280929190818152602001828054610282906116ec565b80156102cf5780601f106102a4576101008083540402835291602001916102cf565b820191906000526020600020905b8154815290600101906020018083116102b257829003601f168201915b5050505050908060020154908060030154908060040154908060050154908060060180546102fc906116ec565b80601f0160208091040260200160405190810160405280929190818152602001828054610328906116ec565b80156103755780601f1061034a57610100808354040283529160200191610375565b820191906000526020600020905b81548152906001019060200180831161035857829003601f168201915b5050505050908060070154905088565b61038d610f45565b600060036000848152602001908152602001600020905080600301548160040154106103ee576040517f08c379a00000000000000000000000000000000000000000000000000000000081526004016103e59061178f565b60405180910390fd5b6001600381111561040257610401611335565b5b600460008581526020019081526020016000208381548110610427576104266117af565b5b906000526020600020906003020160020160009054906101000a900460ff16600381111561045857610457611335565b5b14610498576040517f08c379a000000000000000000000000000000000000000000000000000000000815260040161048f9061182a565b60405180910390fd5b60026004600085815260200190815260200160002083815481106104bf576104be6117af565b5b906000526020600020906003020160020160006101000a81548160ff021916908360038111156104f2576104f1611335565b5b021790555080600401600081548092919061050c90611879565b9190505550827f3d2e0693b8e181cfefbbbca8bbacf348ab5813516ca1ec12ef15710f48dd31bb83600460008781526020019081526020016000208581548110610559576105586117af565b5b906000526020600020906003020160000160009054906101000a900473ffffffffffffffffffffffffffffffffffffffff166040516105999291906118c1565b60405180910390a2505050565b6105ae610f45565b6105b86000610fcc565b565b6105c2610f45565b60006004600084815260200190815260200160002082815481106105e9576105e86117af565b5b9060005260206000209060030201905060006003600085815260200190815260200160002090506002600381111561062457610623611335565b5b8260020160009054906101000a900460ff16600381111561064857610647611335565b5b14610688576040517f08c379a000000000000000000000000000000000000000000000000000000000815260040161067f90611936565b60405180910390fd5b8060020154600160009054906101000a900473ffffffffffffffffffffffffffffffffffffffff1673ffffffffffffffffffffffffffffffffffffffff166370a08231306040518263ffffffff1660e01b81526004016106e891906113ea565b602060405180830381865afa158015610705573d6000803e3d6000fd5b505050506040513d601f19601f82011682018060405250810190610729919061196b565b101561076a576040517f08c379a0000000000000000000000000000000000000000000000000000000008152600401610761906119e4565b60405180910390fd5b60038260020160006101000a81548160ff0219169083600381111561079257610791611335565b5b0217905550600160009054906101000a900473ffffffffffffffffffffffffffffffffffffffff1673ffffffffffffffffffffffffffffffffffffffff1663a9059cbb8360000160009054906101000a900473ffffffffffffffffffffffffffffffffffffffff1683600201546040518363ffffffff1660e01b815260040161081c929190611a04565b6020604051808303816000875af115801561083b573d6000803e3d6000fd5b505050506040513d601f19601f8201168201806040525081019061085f9190611a65565b61089e576040517f08c379a000000000000000000000000000000000000000000000000000000000815260040161089590611ade565b60405180910390fd5b837f8a932cfa1f2c4405ecf83ef9b014d4e08b84019e45aac0cfa6936bc57668e425848460000160009054906101000a900473ffffffffffffffffffffffffffffffffffffffff1684600201546040516108fa93929190611afe565b60405180910390a250505050565b6004602052816000526040600020818154811061092457600080fd5b9060005260206000209060030201600091509150508060000160009054906101000a900473ffffffffffffffffffffffffffffffffffffffff169080600101805461096e906116ec565b80601f016020809104026020016040519081016040528092919081815260200182805461099a906116ec565b80156109e75780601f106109bc576101008083540402835291602001916109e7565b820191906000526020600020905b8154815290600101906020018083116109ca57829003601f168201915b5050505050908060020160009054906101000a900460ff16905083565b60008060009054906101000a900473ffffffffffffffffffffffffffffffffffffffff16905090565b600060036000848152602001908152602001600020905042816005015411610a8a576040517f08c379a0000000000000000000000000000000000000000000000000000000008152600401610a8190611b81565b60405180910390fd5b6004600084815260200190815260200160002060405180606001604052803373ffffffffffffffffffffffffffffffffffffffff16815260200184815260200160016003811115610ade57610add611335565b5b815250908060018154018082558091505060019003906000526020600020906003020160009091909190915060008201518160000160006101000a81548173ffffffffffffffffffffffffffffffffffffffff021916908373ffffffffffffffffffffffffffffffffffffffff1602179055506020820151816001019081610b669190611d43565b5060408201518160020160006101000a81548160ff02191690836003811115610b9257610b91611335565b5b02179055505050806007016000815480929190610bae90611879565b91905055503373ffffffffffffffffffffffffffffffffffffffff16837f77813f331a0748806a13ce2604421e1b5fbfbbc9d1f20751a8f218e3608965e760018460070154610bfd9190611e15565b604051610c0a9190611596565b60405180910390a3505050565b60025481565b610c25610f45565b428211610c67576040517f08c379a0000000000000000000000000000000000000000000000000000000008152600401610c5e90611e95565b60405180910390fd5b60008311610caa576040517f08c379a0000000000000000000000000000000000000000000000000000000008152600401610ca190611f01565b60405180910390fd5b60008385610cb89190611f21565b90506000600160009054906101000a900473ffffffffffffffffffffffffffffffffffffffff1673ffffffffffffffffffffffffffffffffffffffff166323b872dd3330856040518463ffffffff1660e01b8152600401610d1b93929190611f63565b6020604051808303816000875af1158015610d3a573d6000803e3d6000fd5b505050506040513d601f19601f82011682018060405250810190610d5e9190611a65565b905080610da0576040517f08c379a0000000000000000000000000000000000000000000000000000000008152600401610d979061200c565b60405180910390fd5b6040518061010001604052806002548152602001888152602001878152602001868152602001600081526020018581526020018481526020016000815250600360006002548152602001908152602001600020600082015181600001556020820151816001019081610e129190611d43565b5060408201518160020155606082015181600301556080820151816004015560a0820151816005015560c0820151816006019081610e509190611d43565b5060e082015181600701559050506002547fa9fe89ef393b19fc34bb09fcb22ac19652c470364a9a41fd7822884a394d239e88888888604051610e96949392919061202c565b60405180910390a260026000815480929190610eb190611879565b919050555050505050505050565b610ec7610f45565b600073ffffffffffffffffffffffffffffffffffffffff168173ffffffffffffffffffffffffffffffffffffffff1603610f395760006040517f1e4fbdf7000000000000000000000000000000000000000000000000000000008152600401610f3091906113ea565b60405180910390fd5b610f4281610fcc565b50565b610f4d611090565b73ffffffffffffffffffffffffffffffffffffffff16610f6b610a04565b73ffffffffffffffffffffffffffffffffffffffff1614610fca57610f8e611090565b6040517f118cdaa7000000000000000000000000000000000000000000000000000000008152600401610fc191906113ea565b60405180910390fd5b565b60008060009054906101000a900473ffffffffffffffffffffffffffffffffffffffff169050816000806101000a81548173ffffffffffffffffffffffffffffffffffffffff021916908373ffffffffffffffffffffffffffffffffffffffff1602179055508173ffffffffffffffffffffffffffffffffffffffff168173ffffffffffffffffffffffffffffffffffffffff167f8be0079c531659141344cd1fd0a4f28419497f9722a3daafe3b4186f6b6457e060405160405180910390a35050565b600033905090565b600073ffffffffffffffffffffffffffffffffffffffff82169050919050565b6000819050919050565b60006110dd6110d86110d384611098565b6110b8565b611098565b9050919050565b60006110ef826110c2565b9050919050565b6000611101826110e4565b9050919050565b611111816110f6565b82525050565b600060208201905061112c6000830184611108565b92915050565b6000604051905090565b600080fd5b600080fd5b6000819050919050565b61115981611146565b811461116457600080fd5b50565b60008135905061117681611150565b92915050565b6000602082840312156111925761119161113c565b5b60006111a084828501611167565b91505092915050565b6111b281611146565b82525050565b600081519050919050565b600082825260208201905092915050565b60005b838110156111f25780820151818401526020810190506111d7565b60008484015250505050565b6000601f19601f8301169050919050565b600061121a826111b8565b61122481856111c3565b93506112348185602086016111d4565b61123d816111fe565b840191505092915050565b60006101008201905061125e600083018b6111a9565b8181036020830152611270818a61120f565b905061127f60408301896111a9565b61128c60608301886111a9565b61129960808301876111a9565b6112a660a08301866111a9565b81810360c08301526112b8818561120f565b90506112c760e08301846111a9565b9998505050505050505050565b600080604083850312156112eb576112ea61113c565b5b60006112f985828601611167565b925050602061130a85828601611167565b9150509250929050565b600061131f82611098565b9050919050565b61132f81611314565b82525050565b7f4e487b7100000000000000000000000000000000000000000000000000000000600052602160045260246000fd5b6004811061137557611374611335565b5b50565b600081905061138682611364565b919050565b600061139682611378565b9050919050565b6113a68161138b565b82525050565b60006060820190506113c16000830186611326565b81810360208301526113d3818561120f565b90506113e2604083018461139d565b949350505050565b60006020820190506113ff6000830184611326565b92915050565b600080fd5b600080fd5b7f4e487b7100000000000000000000000000000000000000000000000000000000600052604160045260246000fd5b611447826111fe565b810181811067ffffffffffffffff821117156114665761146561140f565b5b80604052505050565b6000611479611132565b9050611485828261143e565b919050565b600067ffffffffffffffff8211156114a5576114a461140f565b5b6114ae826111fe565b9050602081019050919050565b82818337600083830152505050565b60006114dd6114d88461148a565b61146f565b9050828152602081018484840111156114f9576114f861140a565b5b6115048482856114bb565b509392505050565b600082601f83011261152157611520611405565b5b81356115318482602086016114ca565b91505092915050565b600080604083850312156115515761155061113c565b5b600061155f85828601611167565b925050602083013567ffffffffffffffff8111156115805761157f611141565b5b61158c8582860161150c565b9150509250929050565b60006020820190506115ab60008301846111a9565b92915050565b600080600080600060a086880312156115cd576115cc61113c565b5b600086013567ffffffffffffffff8111156115eb576115ea611141565b5b6115f78882890161150c565b955050602061160888828901611167565b945050604061161988828901611167565b935050606061162a88828901611167565b925050608086013567ffffffffffffffff81111561164b5761164a611141565b5b6116578882890161150c565b9150509295509295909350565b61166d81611314565b811461167857600080fd5b50565b60008135905061168a81611664565b92915050565b6000602082840312156116a6576116a561113c565b5b60006116b48482850161167b565b91505092915050565b7f4e487b7100000000000000000000000000000000000000000000000000000000600052602260045260246000fd5b6000600282049050600182168061170457607f821691505b602082108103611717576117166116bd565b5b50919050565b7f486f6320626f6e67206461206865742073756174202846756c6c20536c6f747360008201527f2900000000000000000000000000000000000000000000000000000000000000602082015250565b60006117796021836111c3565b91506117848261171d565b604082019050919050565b600060208201905081810360008301526117a88161176c565b9050919050565b7f4e487b7100000000000000000000000000000000000000000000000000000000600052603260045260246000fd5b7f5472616e672074686169206b686f6e6720686f70206c65000000000000000000600082015250565b60006118146017836111c3565b915061181f826117de565b602082019050919050565b6000602082019050818103600083015261184381611807565b9050919050565b7f4e487b7100000000000000000000000000000000000000000000000000000000600052601160045260246000fd5b600061188482611146565b91507fffffffffffffffffffffffffffffffffffffffffffffffffffffffffffffffff82036118b6576118b561184a565b5b600182019050919050565b60006040820190506118d660008301856111a9565b6118e36020830184611326565b9392505050565b7f486f20736f20636875612064756f632064757965740000000000000000000000600082015250565b60006119206015836111c3565b915061192b826118ea565b602082019050919050565b6000602082019050818103600083015261194f81611913565b9050919050565b60008151905061196581611150565b92915050565b6000602082840312156119815761198061113c565b5b600061198f84828501611956565b91505092915050565b7f436f6e747261637420686574207469656e000000000000000000000000000000600082015250565b60006119ce6011836111c3565b91506119d982611998565b602082019050919050565b600060208201905081810360008301526119fd816119c1565b9050919050565b6000604082019050611a196000830185611326565b611a2660208301846111a9565b9392505050565b60008115159050919050565b611a4281611a2d565b8114611a4d57600080fd5b50565b600081519050611a5f81611a39565b92915050565b600060208284031215611a7b57611a7a61113c565b5b6000611a8984828501611a50565b91505092915050565b7f43687579656e207469656e207468617420626169000000000000000000000000600082015250565b6000611ac86014836111c3565b9150611ad382611a92565b602082019050919050565b60006020820190508181036000830152611af781611abb565b9050919050565b6000606082019050611b1360008301866111a9565b611b206020830185611326565b611b2d60408301846111a9565b949350505050565b7f4461207175612068616e206e6f7020686f20736f000000000000000000000000600082015250565b6000611b6b6014836111c3565b9150611b7682611b35565b602082019050919050565b60006020820190508181036000830152611b9a81611b5e565b9050919050565b60008190508160005260206000209050919050565b60006020601f8301049050919050565b600082821b905092915050565b600060088302611c037fffffffffffffffffffffffffffffffffffffffffffffffffffffffffffffffff82611bc6565b611c0d8683611bc6565b95508019841693508086168417925050509392505050565b6000611c40611c3b611c3684611146565b6110b8565b611146565b9050919050565b6000819050919050565b611c5a83611c25565b611c6e611c6682611c47565b848454611bd3565b825550505050565b600090565b611c83611c76565b611c8e818484611c51565b505050565b5b81811015611cb257611ca7600082611c7b565b600181019050611c94565b5050565b601f821115611cf757611cc881611ba1565b611cd184611bb6565b81016020851015611ce0578190505b611cf4611cec85611bb6565b830182611c93565b50505b505050565b600082821c905092915050565b6000611d1a60001984600802611cfc565b1980831691505092915050565b6000611d338383611d09565b9150826002028217905092915050565b611d4c826111b8565b67ffffffffffffffff811115611d6557611d6461140f565b5b611d6f82546116ec565b611d7a828285611cb6565b600060209050601f831160018114611dad5760008415611d9b578287015190505b611da58582611d27565b865550611e0d565b601f198416611dbb86611ba1565b60005b82811015611de357848901518255600182019150602085019450602081019050611dbe565b86831015611e005784890151611dfc601f891682611d09565b8355505b6001600288020188555050505b505050505050565b6000611e2082611146565b9150611e2b83611146565b9250828203905081811115611e4357611e4261184a565b5b92915050565b7f446561646c696e652070686169206f2074756f6e67206c616900000000000000600082015250565b6000611e7f6019836111c3565b9150611e8a82611e49565b602082019050919050565b60006020820190508181036000830152611eae81611e72565b9050919050565b7f536f206c756f6e6720737561742070686169206c6f6e20686f6e203000000000600082015250565b6000611eeb601c836111c3565b9150611ef682611eb5565b602082019050919050565b60006020820190508181036000830152611f1a81611ede565b9050919050565b6000611f2c82611146565b9150611f3783611146565b9250828202611f4581611146565b91508282048414831517611f5c57611f5b61184a565b5b5092915050565b6000606082019050611f786000830186611326565b611f856020830185611326565b611f9260408301846111a9565b949350505050565b7f4b686f6e67207468652072757420546f6b656e2e20567569206c6f6e67206b6960008201527f656d2074726120417070726f7665210000000000000000000000000000000000602082015250565b6000611ff6602f836111c3565b915061200182611f9a565b604082019050919050565b6000602082019050818103600083015261202581611fe9565b9050919050565b60006080820190508181036000830152612046818761120f565b905061205560208301866111a9565b61206260408301856111a9565b61206f60608301846111a9565b9594505050505056fea2646970667358221220ffb8a4d97a0273aac9882abdffd20c9d7ed31eb269ab049992a504f836ebd7f764736f6c63430008140033",
  "linkReferences": {},
  "deployedLinkReferences": {}
}