{
  "_format": "hh-sol-artifact-1",
  "contractName": "ScholarshipManager",
  "sourceName": "contracts/ScholarshipManager.sol",
  "abi": [
    {
      "inputs": [
        {
          "internalType": "address",
          "name": "_tokenAddress",
          "type": "address"
        }
      ],
      "stateMutability": "nonpayable",
      "type": "constructor"
    },
    {
      "inputs": [
        {
          "internalType": "address",
          "name": "owner",
          "type": "address"
        }
      ],
      "name": "OwnableInvalidOwner",
      "type": "error"
    },
    {
      "inputs": [
        {
          "internalType": "address",
          "name": "account",
          "type": "address"
        }
      ],
      "name": "OwnableUnauthorizedAccount",
      "type": "error"
    },
    {
      "anonymous": false,
      "inputs": [
        {
          "indexed": true,
          "internalType": "uint256",
          "name": "id",
          "type": "uint256"
        },
        {
          "indexed": true,
          "internalType": "address",
          "name": "applicant",
          "type": "address"
        }
      ],
      "name": "Applied",
      "type": "event"
    },
    {
      "anonymous": false,
      "inputs": [
        {
          "indexed": true,
          "internalType": "uint256",
          "name": "id",
          "type": "uint256"
        },
        {
          "indexed": false,
          "internalType": "uint256",
          "name": "index",
          "type": "uint256"
        },
        {
          "indexed": false,
          "internalType": "address",
          "name": "approver",
          "type": "address"
        }
      ],
      "name": "Approved",
      "type": "event"
    },
    {
      "anonymous": false,
      "inputs": [
        {
          "indexed": true,
          "internalType": "uint256",
          "name": "id",
          "type": "uint256"
        },
        {
          "indexed": false,
          "internalType": "uint256",
          "name": "amount",
          "type": "uint256"
        },
        {
          "indexed": false,
          "internalType": "address",
          "name": "receiver",
          "type": "address"
        }
      ],
      "name": "FundsWithdrawn",
      "type": "event"
    },
    {
      "anonymous": false,
      "inputs": [
        {
          "indexed": true,
          "internalType": "address",
          "name": "previousOwner",
          "type": "address"
        },
        {
          "indexed": true,
          "internalType": "address",
          "name": "newOwner",
          "type": "address"
        }
      ],
      "name": "OwnershipTransferred",
      "type": "event"
    },
    {
      "anonymous": false,
      "inputs": [
        {
          "indexed": true,
          "internalType": "uint256",
          "name": "id",
          "type": "uint256"
        },
        {
          "indexed": false,
          "internalType": "uint256",
          "name": "index",
          "type": "uint256"
        },
        {
          "indexed": false,
          "internalType": "address",
          "name": "to",
          "type": "address"
        },
        {
          "indexed": false,
          "internalType": "uint256",
          "name": "amount",
          "type": "uint256"
        }
      ],
      "name": "Paid",
      "type": "event"
    },
    {
      "anonymous": false,
      "inputs": [
        {
          "indexed": true,
          "internalType": "uint256",
          "name": "id",
          "type": "uint256"
        },
        {
          "indexed": false,
          "internalType": "string",
          "name": "title",
          "type": "string"
        },
        {
          "indexed": false,
          "internalType": "uint256",
          "name": "amount",
          "type": "uint256"
        },
        {
          "indexed": false,
          "internalType": "address",
          "name": "creator",
          "type": "address"
        }
      ],
      "name": "ScholarshipCreated",
      "type": "event"
    },
    {
      "anonymous": false,
      "inputs": [
        {
          "indexed": true,
          "internalType": "uint256",
          "name": "id",
          "type": "uint256"
        },
        {
          "indexed": false,
          "internalType": "uint256",
          "name": "index",
          "type": "uint256"
        },
        {
          "indexed": false,
          "internalType": "address",
          "name": "verifier",
          "type": "address"
        },
        {
          "indexed": false,
          "internalType": "bool",
          "name": "isValid",
          "type": "bool"
        }
      ],
      "name": "Verified",
      "type": "event"
    },
    {
      "anonymous": false,
      "inputs": [
        {
          "indexed": true,
          "internalType": "address",
          "name": "verifier",
          "type": "address"
        }
      ],
      "name": "VerifierAdded",
      "type": "event"
    },
    {
      "anonymous": false,
      "inputs": [
        {
          "indexed": true,
          "internalType": "address",
          "name": "verifier",
          "type": "address"
        }
      ],
      "name": "VerifierRemoved",
      "type": "event"
    },
    {
      "inputs": [
        {
          "internalType": "address",
          "name": "_verifier",
          "type": "address"
        }
      ],
      "name": "addVerifier",
      "outputs": [],
      "stateMutability": "nonpayable",
      "type": "function"
    },
    {
      "inputs": [
        {
          "internalType": "uint256",
          "name": "",
          "type": "uint256"
        },
        {
          "internalType": "uint256",
          "name": "",
          "type": "uint256"
        }
      ],
      "name": "applications",
      "outputs": [
        {
          "internalType": "address",
          "name": "applicant",
          "type": "address"
        },
        {
          "internalType": "string",
          "name": "metadata",
          "type": "string"
        },
        {
          "internalType": "enum ScholarshipManager.Status",
          "name": "status",
          "type": "uint8"
        }
      ],
      "stateMutability": "view",
      "type": "function"
    },
    {
      "inputs": [
        {
          "internalType": "uint256",
          "name": "scholarshipId",
          "type": "uint256"
        },
        {
          "internalType": "string",
          "name": "metadata",
          "type": "string"
        }
      ],
      "name": "applyForScholarship",
      "outputs": [],
      "stateMutability": "nonpayable",
      "type": "function"
    },
    {
      "inputs": [
        {
          "internalType": "uint256",
          "name": "scholarshipId",
          "type": "uint256"
        },
        {
          "internalType": "uint256",
          "name": "index",
          "type": "uint256"
        }
      ],
      "name": "approveApplicant",
      "outputs": [],
      "stateMutability": "nonpayable",
      "type": "function"
    },
    {
      "inputs": [
        {
          "internalType": "string",
          "name": "title",
          "type": "string"
        },
        {
          "internalType": "uint256",
          "name": "amount",
          "type": "uint256"
        },
        {
          "internalType": "uint256",
          "name": "slots",
          "type": "uint256"
        },
        {
          "internalType": "uint256",
          "name": "deadline",
          "type": "uint256"
        },
        {
          "internalType": "string",
          "name": "description",
          "type": "string"
        }
      ],
      "name": "createScholarship",
      "outputs": [],
      "stateMutability": "nonpayable",
      "type": "function"
    },
    {
      "inputs": [],
      "name": "getVerifierList",
      "outputs": [
        {
          "internalType": "address[]",
          "name": "",
          "type": "address[]"
        }
      ],
      "stateMutability": "view",
      "type": "function"
    },
    {
      "inputs": [
        {
          "internalType": "address",
          "name": "",
          "type": "address"
        }
      ],
      "name": "isVerifier",
      "outputs": [
        {
          "internalType": "bool",
          "name": "",
          "type": "bool"
        }
      ],
      "stateMutability": "view",
      "type": "function"
    },
    {
      "inputs": [],
      "name": "nextScholarshipId",
      "outputs": [
        {
          "internalType": "uint256",
          "name": "",
          "type": "uint256"
        }
      ],
      "stateMutability": "view",
      "type": "function"
    },
    {
      "inputs": [],
      "name": "owner",
      "outputs": [
        {
          "internalType": "address",
          "name": "",
          "type": "address"
        }
      ],
      "stateMutability": "view",
      "type": "function"
    },
    {
      "inputs": [
        {
          "internalType": "uint256",
          "name": "scholarshipId",
          "type": "uint256"
        },
        {
          "internalType": "uint256",
          "name": "index",
          "type": "uint256"
        }
      ],
      "name": "payApplicant",
      "outputs": [],
      "stateMutability": "nonpayable",
      "type": "function"
    },
    {
      "inputs": [],
      "name": "paymentToken",
      "outputs": [
        {
          "internalType": "contract IERC20",
          "name": "",
          "type": "address"
        }
      ],
      "stateMutability": "view",
      "type": "function"
    },
    {
      "inputs": [
        {
          "internalType": "address",
          "name": "_verifier",
          "type": "address"
        }
      ],
      "name": "removeVerifier",
      "outputs": [],
      "stateMutability": "nonpayable",
      "type": "function"
    },
    {
      "inputs": [],
      "name": "renounceOwnership",
      "outputs": [],
      "stateMutability": "nonpayable",
      "type": "function"
    },
    {
      "inputs": [
        {
          "internalType": "uint256",
          "name": "",
          "type": "uint256"
        }
      ],
      "name": "scholarships",
      "outputs": [
        {
          "internalType": "uint256",
          "name": "id",
          "type": "uint256"
        },
        {
          "internalType": "string",
          "name": "title",
          "type": "string"
        },
        {
          "internalType": "uint256",
          "name": "amount",
          "type": "uint256"
        },
        {
          "internalType": "uint256",
          "name": "slots",
          "type": "uint256"
        },
        {
          "internalType": "uint256",
          "name": "filledSlots",
          "type": "uint256"
        },
        {
          "internalType": "uint256",
          "name": "deadline",
          "type": "uint256"
        },
        {
          "internalType": "string",
          "name": "description",
          "type": "string"
        },
        {
          "internalType": "uint256",
          "name": "totalApplicants",
          "type": "uint256"
        },
        {
          "internalType": "address",
          "name": "creator",
          "type": "address"
        }
      ],
      "stateMutability": "view",
      "type": "function"
    },
    {
      "inputs": [
        {
          "internalType": "address",
          "name": "newOwner",
          "type": "address"
        }
      ],
      "name": "transferOwnership",
      "outputs": [],
      "stateMutability": "nonpayable",
      "type": "function"
    },
    {
      "inputs": [
        {
          "internalType": "uint256",
          "name": "",
          "type": "uint256"
        }
      ],
      "name": "verifierList",
      "outputs": [
        {
          "internalType": "address",
          "name": "",
          "type": "address"
        }
      ],
      "stateMutability": "view",
      "type": "function"
    },
    {
      "inputs": [
        {
          "internalType": "uint256",
          "name": "scholarshipId",
          "type": "uint256"
        },
        {
          "internalType": "uint256",
          "name": "index",
          "type": "uint256"
        },
        {
          "internalType": "bool",
          "name": "isValid",
          "type": "bool"
        }
      ],
      "name": "verifyApplicant",
      "outputs": [],
      "stateMutability": "nonpayable",
      "type": "function"
    },
    {
      "inputs": [
        {
          "internalType": "uint256",
          "name": "scholarshipId",
          "type": "uint256"
        }
      ],
      "name": "withdrawRemainingFunds",
      "outputs": [],
      "stateMutability": "nonpayable",
      "type": "function"
    }
  ],
  "bytecode": "0x60806040523480156200001157600080fd5b50604051620038d3380380620038d3833981810160405281019062000037919062000471565b7321143185abb050330f6da0b5c3f1089a0ab6de93600073ffffffffffffffffffffffffffffffffffffffff168173ffffffffffffffffffffffffffffffffffffffff1603620000c15760006040517f1e4fbdf7000000000000000000000000000000000000000000000000000000008152600401620000b89190620004b4565b60405180910390fd5b620000d281620001b260201b60201c565b50600073ffffffffffffffffffffffffffffffffffffffff168173ffffffffffffffffffffffffffffffffffffffff160362000145576040517f08c379a00000000000000000000000000000000000000000000000000000000081526004016200013c9062000532565b60405180910390fd5b80600160006101000a81548173ffffffffffffffffffffffffffffffffffffffff021916908373ffffffffffffffffffffffffffffffffffffffff160217905550620001ab7321143185abb050330f6da0b5c3f1089a0ab6de936200027660201b60201c565b50620005c6565b60008060009054906101000a900473ffffffffffffffffffffffffffffffffffffffff169050816000806101000a81548173ffffffffffffffffffffffffffffffffffffffff021916908373ffffffffffffffffffffffffffffffffffffffff1602179055508173ffffffffffffffffffffffffffffffffffffffff168173ffffffffffffffffffffffffffffffffffffffff167f8be0079c531659141344cd1fd0a4f28419497f9722a3daafe3b4186f6b6457e060405160405180910390a35050565b600260008273ffffffffffffffffffffffffffffffffffffffff1673ffffffffffffffffffffffffffffffffffffffff16815260200190815260200160002060009054906101000a900460ff161562000306576040517f08c379a0000000000000000000000000000000000000000000000000000000008152600401620002fd90620005a4565b60405180910390fd5b6001600260008373ffffffffffffffffffffffffffffffffffffffff1673ffffffffffffffffffffffffffffffffffffffff16815260200190815260200160002060006101000a81548160ff0219169083151502179055506003819080600181540180825580915050600190039060005260206000200160009091909190916101000a81548173ffffffffffffffffffffffffffffffffffffffff021916908373ffffffffffffffffffffffffffffffffffffffff1602179055508073ffffffffffffffffffffffffffffffffffffffff167f6d05492139c5ea989514a5d2150c028041e5c087e2a39967f67dc7d2655adb8160405160405180910390a250565b600080fd5b600073ffffffffffffffffffffffffffffffffffffffff82169050919050565b600062000439826200040c565b9050919050565b6200044b816200042c565b81146200045757600080fd5b50565b6000815190506200046b8162000440565b92915050565b6000602082840312156200048a576200048962000407565b5b60006200049a848285016200045a565b91505092915050565b620004ae816200042c565b82525050565b6000602082019050620004cb6000830184620004a3565b92915050565b600082825260208201905092915050565b7f4469612063686920546f6b656e206b686f6e6720686f70206c65000000000000600082015250565b60006200051a601a83620004d1565b91506200052782620004e2565b602082019050919050565b600060208201905081810360008301526200054d816200050b565b9050919050565b7f5669206e6179206461206c61205472756f6e6720726f69000000000000000000600082015250565b60006200058c601783620004d1565b9150620005998262000554565b602082019050919050565b60006020820190508181036000830152620005bf816200057d565b9050919050565b6132fd80620005d66000396000f3fe608060405234801561001057600080fd5b50600436106101165760003560e01c80637a870b63116100a2578063c6c08a5811610071578063c6c08a58146102d5578063ca2dfd0a146102f1578063d84c01b31461030d578063ee0866f41461032b578063f2fde38b1461034757610116565b80637a870b631461024d5780638da5cb5b1461027f5780639000b3d61461029d578063bd798a3f146102b957610116565b80633a2146b8116100e95780633a2146b8146101bf57806357762ddd146101db578063599ed9181461020b578063715018a61461022757806372b4f6fe1461023157610116565b80632b5d12e11461011b5780633013ce2914610139578063331052181461015757806339dc58c614610187575b600080fd5b610123610363565b6040516101309190611e58565b60405180910390f35b6101416103f1565b60405161014e9190611ed9565b60405180910390f35b610171600480360381019061016c9190611f34565b610417565b60405161017e9190611f7c565b60405180910390f35b6101a1600480360381019061019c9190611fcd565b610437565b6040516101b6999897969594939291906120a8565b60405180910390f35b6101d960048036038101906101d49190612143565b6105b5565b005b6101f560048036038101906101f09190611fcd565b61081b565b6040516102029190612183565b60405180910390f35b610225600480360381019061022091906121ca565b61085a565b005b61022f610a3d565b005b61024b60048036038101906102469190612143565b610a51565b005b61026760048036038101906102629190612143565b610e66565b60405161027693929190612294565b60405180910390f35b610287610f62565b6040516102949190612183565b60405180910390f35b6102b760048036038101906102b29190611f34565b610f8b565b005b6102d360048036038101906102ce9190611fcd565b610f9f565b005b6102ef60048036038101906102ea9190612407565b611271565b005b61030b60048036038101906103069190611f34565b611440565b005b6103156116ff565b6040516103229190612463565b60405180910390f35b6103456004803603810190610340919061247e565b611705565b005b610361600480360381019061035c9190611f34565b611a01565b005b606060038054806020026020016040519081016040528092919081815260200182805480156103e757602002820191906000526020600020905b8160009054906101000a900473ffffffffffffffffffffffffffffffffffffffff1673ffffffffffffffffffffffffffffffffffffffff168152602001906001019080831161039d575b5050505050905090565b600160009054906101000a900473ffffffffffffffffffffffffffffffffffffffff1681565b60026020528060005260406000206000915054906101000a900460ff1681565b600560205280600052604060002060009150905080600001549080600101805461046090612560565b80601f016020809104026020016040519081016040528092919081815260200182805461048c90612560565b80156104d95780601f106104ae576101008083540402835291602001916104d9565b820191906000526020600020905b8154815290600101906020018083116104bc57829003601f168201915b50505050509080600201549080600301549080600401549080600501549080600601805461050690612560565b80601f016020809104026020016040519081016040528092919081815260200182805461053290612560565b801561057f5780601f106105545761010080835404028352916020019161057f565b820191906000526020600020905b81548152906001019060200180831161056257829003601f168201915b5050505050908060070154908060080160009054906101000a900473ffffffffffffffffffffffffffffffffffffffff16905089565b60006005600084815260200190815260200160002090508060080160009054906101000a900473ffffffffffffffffffffffffffffffffffffffff1673ffffffffffffffffffffffffffffffffffffffff163373ffffffffffffffffffffffffffffffffffffffff16148061065c575061062d610f62565b73ffffffffffffffffffffffffffffffffffffffff163373ffffffffffffffffffffffffffffffffffffffff16145b61069b576040517f08c379a0000000000000000000000000000000000000000000000000000000008152600401610692906125dd565b60405180910390fd5b60006006600085815260200190815260200160002083815481106106c2576106c16125fd565b5b90600052602060002090600302019050600260058111156106e6576106e561221d565b5b8160020160009054906101000a900460ff16600581111561070a5761070961221d565b5b1461074a576040517f08c379a000000000000000000000000000000000000000000000000000000000815260040161074190612678565b60405180910390fd5b8160030154826004015410610794576040517f08c379a000000000000000000000000000000000000000000000000000000000815260040161078b906126e4565b60405180910390fd5b60038160020160006101000a81548160ff021916908360058111156107bc576107bb61221d565b5b02179055508160040160008154809291906107d690612733565b9190505550837f682ae4846084697482c0c2f8bff7dbfabb0c282e5717a24f740f3026a655789b843360405161080d92919061277b565b60405180910390a250505050565b6003818154811061082b57600080fd5b906000526020600020016000915054906101000a900473ffffffffffffffffffffffffffffffffffffffff1681565b600260003373ffffffffffffffffffffffffffffffffffffffff1673ffffffffffffffffffffffffffffffffffffffff16815260200190815260200160002060009054906101000a900460ff166108e6576040517f08c379a00000000000000000000000000000000000000000000000000000000081526004016108dd906127f0565b60405180910390fd5b600060066000858152602001908152602001600020838154811061090d5761090c6125fd565b5b90600052602060002090600302019050600160058111156109315761093061221d565b5b8160020160009054906101000a900460ff1660058111156109555761095461221d565b5b14610995576040517f08c379a000000000000000000000000000000000000000000000000000000000815260040161098c90612882565b60405180910390fd5b81156109cd5760028160020160006101000a81548160ff021916908360058111156109c3576109c261221d565b5b02179055506109fb565b60058160020160006101000a81548160ff021916908360058111156109f5576109f461221d565b5b02179055505b837f72d80811aca886dc9144f79cf7a3751de868ba19c3b5141033e90b9fe6cfe913843385604051610a2f939291906128a2565b60405180910390a250505050565b610a45611a87565b610a4f6000611b0e565b565b60006005600084815260200190815260200160002090508060080160009054906101000a900473ffffffffffffffffffffffffffffffffffffffff1673ffffffffffffffffffffffffffffffffffffffff163373ffffffffffffffffffffffffffffffffffffffff161480610af85750610ac9610f62565b73ffffffffffffffffffffffffffffffffffffffff163373ffffffffffffffffffffffffffffffffffffffff16145b610b37576040517f08c379a0000000000000000000000000000000000000000000000000000000008152600401610b2e90612925565b60405180910390fd5b6000600660008581526020019081526020016000208381548110610b5e57610b5d6125fd565b5b9060005260206000209060030201905060036005811115610b8257610b8161221d565b5b8160020160009054906101000a900460ff166005811115610ba657610ba561221d565b5b14610be6576040517f08c379a0000000000000000000000000000000000000000000000000000000008152600401610bdd90612991565b60405180910390fd5b8160020154600160009054906101000a900473ffffffffffffffffffffffffffffffffffffffff1673ffffffffffffffffffffffffffffffffffffffff166370a08231306040518263ffffffff1660e01b8152600401610c469190612183565b602060405180830381865afa158015610c63573d6000803e3d6000fd5b505050506040513d601f19601f82011682018060405250810190610c8791906129c6565b1015610cc8576040517f08c379a0000000000000000000000000000000000000000000000000000000008152600401610cbf90612a3f565b60405180910390fd5b60048160020160006101000a81548160ff02191690836005811115610cf057610cef61221d565b5b0217905550600160009054906101000a900473ffffffffffffffffffffffffffffffffffffffff1673ffffffffffffffffffffffffffffffffffffffff1663a9059cbb8260000160009054906101000a900473ffffffffffffffffffffffffffffffffffffffff1684600201546040518363ffffffff1660e01b8152600401610d7a929190612a5f565b6020604051808303816000875af1158015610d99573d6000803e3d6000fd5b505050506040513d601f19601f82011682018060405250810190610dbd9190612a9d565b610dfc576040517f08c379a0000000000000000000000000000000000000000000000000000000008152600401610df390612b16565b60405180910390fd5b837f8a932cfa1f2c4405ecf83ef9b014d4e08b84019e45aac0cfa6936bc57668e425848360000160009054906101000a900473ffffffffffffffffffffffffffffffffffffffff168560020154604051610e5893929190612b36565b60405180910390a250505050565b60066020528160005260406000208181548110610e8257600080fd5b9060005260206000209060030201600091509150508060000160009054906101000a900473ffffffffffffffffffffffffffffffffffffffff1690806001018054610ecc90612560565b80601f0160208091040260200160405190810160405280929190818152602001828054610ef890612560565b8015610f455780601f10610f1a57610100808354040283529160200191610f45565b820191906000526020600020905b815481529060010190602001808311610f2857829003601f168201915b5050505050908060020160009054906101000a900460ff16905083565b60008060009054906101000a900473ffffffffffffffffffffffffffffffffffffffff16905090565b610f93611a87565b610f9c81611bd2565b50565b60006005600083815260200190815260200160002090508060080160009054906101000a900473ffffffffffffffffffffffffffffffffffffffff1673ffffffffffffffffffffffffffffffffffffffff163373ffffffffffffffffffffffffffffffffffffffff1614611048576040517f08c379a000000000000000000000000000000000000000000000000000000000815260040161103f906125dd565b60405180910390fd5b8060050154421161108e576040517f08c379a000000000000000000000000000000000000000000000000000000000815260040161108590612bb9565b60405180910390fd5b6000816004015482600301546110a49190612bd9565b9050600081116110e9576040517f08c379a00000000000000000000000000000000000000000000000000000000081526004016110e090612c59565b60405180910390fd5b60008260020154826110fb9190612c79565b905082600401548360030181905550600160009054906101000a900473ffffffffffffffffffffffffffffffffffffffff1673ffffffffffffffffffffffffffffffffffffffff1663a9059cbb8460080160009054906101000a900473ffffffffffffffffffffffffffffffffffffffff16836040518363ffffffff1660e01b815260040161118b929190612a5f565b6020604051808303816000875af11580156111aa573d6000803e3d6000fd5b505050506040513d601f19601f820116820180604052508101906111ce9190612a9d565b61120d576040517f08c379a000000000000000000000000000000000000000000000000000000000815260040161120490612d07565b60405180910390fd5b837ff3b5906e5672f3e524854103bcafbbdba80dbdfeca2c35e116127b1060a68318828560080160009054906101000a900473ffffffffffffffffffffffffffffffffffffffff1660405161126392919061277b565b60405180910390a250505050565b6000600560008481526020019081526020016000209050428160050154116112ce576040517f08c379a00000000000000000000000000000000000000000000000000000000081526004016112c590612d73565b60405180910390fd5b6006600084815260200190815260200160002060405180606001604052803373ffffffffffffffffffffffffffffffffffffffff168152602001848152602001600160058111156113225761132161221d565b5b815250908060018154018082558091505060019003906000526020600020906003020160009091909190915060008201518160000160006101000a81548173ffffffffffffffffffffffffffffffffffffffff021916908373ffffffffffffffffffffffffffffffffffffffff16021790555060208201518160010190816113aa9190612f35565b5060408201518160020160006101000a81548160ff021916908360058111156113d6576113d561221d565b5b021790555050508060070160008154809291906113f290612733565b91905055503373ffffffffffffffffffffffffffffffffffffffff16837f8e536842b0bedb99bbe3d9b2f4d7cd3c1d89955698940f266371b4d4f5caa25760405160405180910390a3505050565b611448611a87565b600260008273ffffffffffffffffffffffffffffffffffffffff1673ffffffffffffffffffffffffffffffffffffffff16815260200190815260200160002060009054906101000a900460ff166114d4576040517f08c379a00000000000000000000000000000000000000000000000000000000081526004016114cb90613053565b60405180910390fd5b6000600260008373ffffffffffffffffffffffffffffffffffffffff1673ffffffffffffffffffffffffffffffffffffffff16815260200190815260200160002060006101000a81548160ff02191690831515021790555060005b6003805490508110156116b8578173ffffffffffffffffffffffffffffffffffffffff1660038281548110611567576115666125fd565b5b9060005260206000200160009054906101000a900473ffffffffffffffffffffffffffffffffffffffff1673ffffffffffffffffffffffffffffffffffffffff16036116a557600360016003805490506115c19190612bd9565b815481106115d2576115d16125fd565b5b9060005260206000200160009054906101000a900473ffffffffffffffffffffffffffffffffffffffff1660038281548110611611576116106125fd565b5b9060005260206000200160006101000a81548173ffffffffffffffffffffffffffffffffffffffff021916908373ffffffffffffffffffffffffffffffffffffffff160217905550600380548061166b5761166a613073565b5b6001900381819060005260206000200160006101000a81549073ffffffffffffffffffffffffffffffffffffffff021916905590556116b8565b80806116b090612733565b91505061152f565b508073ffffffffffffffffffffffffffffffffffffffff167f44a3cd4eb5cc5748f6169df057b1cb2ae4c383e87cd94663c430e095d4cba42460405160405180910390a250565b60045481565b428211611747576040517f08c379a000000000000000000000000000000000000000000000000000000000815260040161173e906130ee565b60405180910390fd5b6000831161178a576040517f08c379a00000000000000000000000000000000000000000000000000000000081526004016117819061315a565b60405180910390fd5b600083856117989190612c79565b90506000600160009054906101000a900473ffffffffffffffffffffffffffffffffffffffff1673ffffffffffffffffffffffffffffffffffffffff166323b872dd3330856040518463ffffffff1660e01b81526004016117fb9392919061317a565b6020604051808303816000875af115801561181a573d6000803e3d6000fd5b505050506040513d601f19601f8201168201806040525081019061183e9190612a9d565b905080611880576040517f08c379a0000000000000000000000000000000000000000000000000000000008152600401611877906131fd565b60405180910390fd5b604051806101200160405280600454815260200188815260200187815260200186815260200160008152602001858152602001848152602001600081526020013373ffffffffffffffffffffffffffffffffffffffff1681525060056000600454815260200190815260200160002060008201518160000155602082015181600101908161190e9190612f35565b5060408201518160020155606082015181600301556080820151816004015560a0820151816005015560c082015181600601908161194c9190612f35565b5060e082015181600701556101008201518160080160006101000a81548173ffffffffffffffffffffffffffffffffffffffff021916908373ffffffffffffffffffffffffffffffffffffffff1602179055509050506004547fac28e804bbe82db64a513375773268e66a070ccda3b106c9ae1409ef8c4b37958888336040516119d89392919061321d565b60405180910390a2600460008154809291906119f390612733565b919050555050505050505050565b611a09611a87565b600073ffffffffffffffffffffffffffffffffffffffff168173ffffffffffffffffffffffffffffffffffffffff1603611a7b5760006040517f1e4fbdf7000000000000000000000000000000000000000000000000000000008152600401611a729190612183565b60405180910390fd5b611a8481611b0e565b50565b611a8f611d60565b73ffffffffffffffffffffffffffffffffffffffff16611aad610f62565b73ffffffffffffffffffffffffffffffffffffffff1614611b0c57611ad0611d60565b6040517f118cdaa7000000000000000000000000000000000000000000000000000000008152600401611b039190612183565b60405180910390fd5b565b60008060009054906101000a900473ffffffffffffffffffffffffffffffffffffffff169050816000806101000a81548173ffffffffffffffffffffffffffffffffffffffff021916908373ffffffffffffffffffffffffffffffffffffffff1602179055508173ffffffffffffffffffffffffffffffffffffffff168173ffffffffffffffffffffffffffffffffffffffff167f8be0079c531659141344cd1fd0a4f28419497f9722a3daafe3b4186f6b6457e060405160405180910390a35050565b600260008273ffffffffffffffffffffffffffffffffffffffff1673ffffffffffffffffffffffffffffffffffffffff16815260200190815260200160002060009054906101000a900460ff1615611c5f576040517f08c379a0000000000000000000000000000000000000000000000000000000008152600401611c56906132a7565b60405180910390fd5b6001600260008373ffffffffffffffffffffffffffffffffffffffff1673ffffffffffffffffffffffffffffffffffffffff16815260200190815260200160002060006101000a81548160ff0219169083151502179055506003819080600181540180825580915050600190039060005260206000200160009091909190916101000a81548173ffffffffffffffffffffffffffffffffffffffff021916908373ffffffffffffffffffffffffffffffffffffffff1602179055508073ffffffffffffffffffffffffffffffffffffffff167f6d05492139c5ea989514a5d2150c028041e5c087e2a39967f67dc7d2655adb8160405160405180910390a250565b600033905090565b600081519050919050565b600082825260208201905092915050565b6000819050602082019050919050565b600073ffffffffffffffffffffffffffffffffffffffff82169050919050565b6000611dbf82611d94565b9050919050565b611dcf81611db4565b82525050565b6000611de18383611dc6565b60208301905092915050565b6000602082019050919050565b6000611e0582611d68565b611e0f8185611d73565b9350611e1a83611d84565b8060005b83811015611e4b578151611e328882611dd5565b9750611e3d83611ded565b925050600181019050611e1e565b5085935050505092915050565b60006020820190508181036000830152611e728184611dfa565b905092915050565b6000819050919050565b6000611e9f611e9a611e9584611d94565b611e7a565b611d94565b9050919050565b6000611eb182611e84565b9050919050565b6000611ec382611ea6565b9050919050565b611ed381611eb8565b82525050565b6000602082019050611eee6000830184611eca565b92915050565b6000604051905090565b600080fd5b600080fd5b611f1181611db4565b8114611f1c57600080fd5b50565b600081359050611f2e81611f08565b92915050565b600060208284031215611f4a57611f49611efe565b5b6000611f5884828501611f1f565b91505092915050565b60008115159050919050565b611f7681611f61565b82525050565b6000602082019050611f916000830184611f6d565b92915050565b6000819050919050565b611faa81611f97565b8114611fb557600080fd5b50565b600081359050611fc781611fa1565b92915050565b600060208284031215611fe357611fe2611efe565b5b6000611ff184828501611fb8565b91505092915050565b61200381611f97565b82525050565b600081519050919050565b600082825260208201905092915050565b60005b83811015612043578082015181840152602081019050612028565b60008484015250505050565b6000601f19601f8301169050919050565b600061206b82612009565b6120758185612014565b9350612085818560208601612025565b61208e8161204f565b840191505092915050565b6120a281611db4565b82525050565b6000610120820190506120be600083018c611ffa565b81810360208301526120d0818b612060565b90506120df604083018a611ffa565b6120ec6060830189611ffa565b6120f96080830188611ffa565b61210660a0830187611ffa565b81810360c08301526121188186612060565b905061212760e0830185611ffa565b612135610100830184612099565b9a9950505050505050505050565b6000806040838503121561215a57612159611efe565b5b600061216885828601611fb8565b925050602061217985828601611fb8565b9150509250929050565b60006020820190506121986000830184612099565b92915050565b6121a781611f61565b81146121b257600080fd5b50565b6000813590506121c48161219e565b92915050565b6000806000606084860312156121e3576121e2611efe565b5b60006121f186828701611fb8565b935050602061220286828701611fb8565b9250506040612213868287016121b5565b9150509250925092565b7f4e487b7100000000000000000000000000000000000000000000000000000000600052602160045260246000fd5b6006811061225d5761225c61221d565b5b50565b600081905061226e8261224c565b919050565b600061227e82612260565b9050919050565b61228e81612273565b82525050565b60006060820190506122a96000830186612099565b81810360208301526122bb8185612060565b90506122ca6040830184612285565b949350505050565b600080fd5b600080fd5b7f4e487b7100000000000000000000000000000000000000000000000000000000600052604160045260246000fd5b6123148261204f565b810181811067ffffffffffffffff82111715612333576123326122dc565b5b80604052505050565b6000612346611ef4565b9050612352828261230b565b919050565b600067ffffffffffffffff821115612372576123716122dc565b5b61237b8261204f565b9050602081019050919050565b82818337600083830152505050565b60006123aa6123a584612357565b61233c565b9050828152602081018484840111156123c6576123c56122d7565b5b6123d1848285612388565b509392505050565b600082601f8301126123ee576123ed6122d2565b5b81356123fe848260208601612397565b91505092915050565b6000806040838503121561241e5761241d611efe565b5b600061242c85828601611fb8565b925050602083013567ffffffffffffffff81111561244d5761244c611f03565b5b612459858286016123d9565b9150509250929050565b60006020820190506124786000830184611ffa565b92915050565b600080600080600060a0868803121561249a57612499611efe565b5b600086013567ffffffffffffffff8111156124b8576124b7611f03565b5b6124c4888289016123d9565b95505060206124d588828901611fb8565b94505060406124e688828901611fb8565b93505060606124f788828901611fb8565b925050608086013567ffffffffffffffff81111561251857612517611f03565b5b612524888289016123d9565b9150509295509295909350565b7f4e487b7100000000000000000000000000000000000000000000000000000000600052602260045260246000fd5b6000600282049050600182168061257857607f821691505b60208210810361258b5761258a612531565b5b50919050565b7f4b686f6e6720706861692063687520736f206875750000000000000000000000600082015250565b60006125c7601583612014565b91506125d282612591565b602082019050919050565b600060208201905081810360008301526125f6816125ba565b9050919050565b7f4e487b7100000000000000000000000000000000000000000000000000000000600052603260045260246000fd5b7f486f20736f20636875612064756f63205472756f6e6720786163206e68616e00600082015250565b6000612662601f83612014565b915061266d8261262c565b602082019050919050565b6000602082019050818103600083015261269181612655565b9050919050565b7f486f6320626f6e67206461206865742073756174000000000000000000000000600082015250565b60006126ce601483612014565b91506126d982612698565b602082019050919050565b600060208201905081810360008301526126fd816126c1565b9050919050565b7f4e487b7100000000000000000000000000000000000000000000000000000000600052601160045260246000fd5b600061273e82611f97565b91507fffffffffffffffffffffffffffffffffffffffffffffffffffffffffffffffff82036127705761276f612704565b5b600182019050919050565b60006040820190506127906000830185611ffa565b61279d6020830184612099565b9392505050565b7f42616e206b686f6e672070686169204e6861207472756f6e6700000000000000600082015250565b60006127da601983612014565b91506127e5826127a4565b602082019050919050565b60006020820190508181036000830152612809816127cd565b9050919050565b7f5472616e672074686169206b686f6e6720686f70206c65202850686169206c6160008201527f204170706c696564290000000000000000000000000000000000000000000000602082015250565b600061286c602983612014565b915061287782612810565b604082019050919050565b6000602082019050818103600083015261289b8161285f565b9050919050565b60006060820190506128b76000830186611ffa565b6128c46020830185612099565b6128d16040830184611f6d565b949350505050565b7f4b686f6e6720636f20717579656e000000000000000000000000000000000000600082015250565b600061290f600e83612014565b915061291a826128d9565b602082019050919050565b6000602082019050818103600083015261293e81612902565b9050919050565b7f486f20736f20636875612064756f632064757965742028417070726f76656429600082015250565b600061297b602083612014565b915061298682612945565b602082019050919050565b600060208201905081810360008301526129aa8161296e565b9050919050565b6000815190506129c081611fa1565b92915050565b6000602082840312156129dc576129db611efe565b5b60006129ea848285016129b1565b91505092915050565b7f436f6e747261637420686574207469656e000000000000000000000000000000600082015250565b6000612a29601183612014565b9150612a34826129f3565b602082019050919050565b60006020820190508181036000830152612a5881612a1c565b9050919050565b6000604082019050612a746000830185612099565b612a816020830184611ffa565b9392505050565b600081519050612a978161219e565b92915050565b600060208284031215612ab357612ab2611efe565b5b6000612ac184828501612a88565b91505092915050565b7f43687579656e207469656e207468617420626169000000000000000000000000600082015250565b6000612b00601483612014565b9150612b0b82612aca565b602082019050919050565b60006020820190508181036000830152612b2f81612af3565b9050919050565b6000606082019050612b4b6000830186611ffa565b612b586020830185612099565b612b656040830184611ffa565b949350505050565b7f43687561206865742068616e20686f6320626f6e670000000000000000000000600082015250565b6000612ba3601583612014565b9150612bae82612b6d565b602082019050919050565b60006020820190508181036000830152612bd281612b96565b9050919050565b6000612be482611f97565b9150612bef83611f97565b9250828203905081811115612c0757612c06612704565b5b92915050565b7f4b686f6e6720636f6e207469656e206475206465207275740000000000000000600082015250565b6000612c43601883612014565b9150612c4e82612c0d565b602082019050919050565b60006020820190508181036000830152612c7281612c36565b9050919050565b6000612c8482611f97565b9150612c8f83611f97565b9250828202612c9d81611f97565b91508282048414831517612cb457612cb3612704565b5b5092915050565b7f4c6f692063687579656e207469656e0000000000000000000000000000000000600082015250565b6000612cf1600f83612014565b9150612cfc82612cbb565b602082019050919050565b60006020820190508181036000830152612d2081612ce4565b9050919050565b7f4865742068616e206e6f70000000000000000000000000000000000000000000600082015250565b6000612d5d600b83612014565b9150612d6882612d27565b602082019050919050565b60006020820190508181036000830152612d8c81612d50565b9050919050565b60008190508160005260206000209050919050565b60006020601f8301049050919050565b600082821b905092915050565b600060088302612df57fffffffffffffffffffffffffffffffffffffffffffffffffffffffffffffffff82612db8565b612dff8683612db8565b95508019841693508086168417925050509392505050565b6000612e32612e2d612e2884611f97565b611e7a565b611f97565b9050919050565b6000819050919050565b612e4c83612e17565b612e60612e5882612e39565b848454612dc5565b825550505050565b600090565b612e75612e68565b612e80818484612e43565b505050565b5b81811015612ea457612e99600082612e6d565b600181019050612e86565b5050565b601f821115612ee957612eba81612d93565b612ec384612da8565b81016020851015612ed2578190505b612ee6612ede85612da8565b830182612e85565b50505b505050565b600082821c905092915050565b6000612f0c60001984600802612eee565b1980831691505092915050565b6000612f258383612efb565b9150826002028217905092915050565b612f3e82612009565b67ffffffffffffffff811115612f5757612f566122dc565b5b612f618254612560565b612f6c828285612ea8565b600060209050601f831160018114612f9f5760008415612f8d578287015190505b612f978582612f19565b865550612fff565b601f198416612fad86612d93565b60005b82811015612fd557848901518255600182019150602085019450602081019050612fb0565b86831015612ff25784890151612fee601f891682612efb565b8355505b6001600288020188555050505b505050505050565b7f5669206e6179206b686f6e672070686169206c61205472756f6e670000000000600082015250565b600061303d601b83612014565b915061304882613007565b602082019050919050565b6000602082019050818103600083015261306c81613030565b9050919050565b7f4e487b7100000000000000000000000000000000000000000000000000000000600052603160045260246000fd5b7f446561646c696e652070686169206f2074756f6e67206c616900000000000000600082015250565b60006130d8601983612014565b91506130e3826130a2565b602082019050919050565b60006020820190508181036000830152613107816130cb565b9050919050565b7f536f206c756f6e672073756174203e2030000000000000000000000000000000600082015250565b6000613144601183612014565b915061314f8261310e565b602082019050919050565b6000602082019050818103600083015261317381613137565b9050919050565b600060608201905061318f6000830186612099565b61319c6020830185612099565b6131a96040830184611ffa565b949350505050565b7f4c6f692063687579656e207469656e2028436865636b20417070726f76652900600082015250565b60006131e7601f83612014565b91506131f2826131b1565b602082019050919050565b60006020820190508181036000830152613216816131da565b9050919050565b600060608201905081810360008301526132378186612060565b90506132466020830185611ffa565b6132536040830184612099565b949350505050565b7f5669206e6179206461206c61205472756f6e6720726f69000000000000000000600082015250565b6000613291601783612014565b915061329c8261325b565b602082019050919050565b600060208201905081810360008301526132c081613284565b905091905056fea2646970667358221220047a8d48ffc909d718edaaa6a4c65262fad7218e2d07c1f6af5b60607647336864736f6c63430008140033",
  "linkReferences": {},
  "deployedLinkReferences": {}
}