{
  "_format": "hh-sol-artifact-1",
  "contractName": "ScholarshipManager",
  "sourceName": "contracts/ScholarshipManager.sol",
  "abi": [
    {
      "inputs": [
        {
          "internalType": "address",
          "name": "_tokenAddress",
          "type": "address"
        }
      ],
      "stateMutability": "nonpayable",
      "type": "constructor"
    },
    {
      "inputs": [
        {
          "internalType": "address",
          "name": "owner",
          "type": "address"
        }
      ],
      "name": "OwnableInvalidOwner",
      "type": "error"
    },
    {
      "inputs": [
        {
          "internalType": "address",
          "name": "account",
          "type": "address"
        }
      ],
      "name": "OwnableUnauthorizedAccount",
      "type": "error"
    },
    {
      "anonymous": false,
      "inputs": [
        {
          "indexed": true,
          "internalType": "uint256",
          "name": "id",
          "type": "uint256"
        },
        {
          "indexed": true,
          "internalType": "address",
          "name": "applicant",
          "type": "address"
        }
      ],
      "name": "Applied",
      "type": "event"
    },
    {
      "anonymous": false,
      "inputs": [
        {
          "indexed": true,
          "internalType": "uint256",
          "name": "id",
          "type": "uint256"
        },
        {
          "indexed": false,
          "internalType": "uint256",
          "name": "index",
          "type": "uint256"
        },
        {
          "indexed": false,
          "internalType": "address",
          "name": "approver",
          "type": "address"
        }
      ],
      "name": "Approved",
      "type": "event"
    },
    {
      "anonymous": false,
      "inputs": [
        {
          "indexed": true,
          "internalType": "address",
          "name": "previousOwner",
          "type": "address"
        },
        {
          "indexed": true,
          "internalType": "address",
          "name": "newOwner",
          "type": "address"
        }
      ],
      "name": "OwnershipTransferred",
      "type": "event"
    },
    {
      "anonymous": false,
      "inputs": [
        {
          "indexed": true,
          "internalType": "uint256",
          "name": "id",
          "type": "uint256"
        },
        {
          "indexed": false,
          "internalType": "uint256",
          "name": "index",
          "type": "uint256"
        },
        {
          "indexed": false,
          "internalType": "address",
          "name": "to",
          "type": "address"
        },
        {
          "indexed": false,
          "internalType": "uint256",
          "name": "amount",
          "type": "uint256"
        }
      ],
      "name": "Paid",
      "type": "event"
    },
    {
      "anonymous": false,
      "inputs": [
        {
          "indexed": true,
          "internalType": "uint256",
          "name": "id",
          "type": "uint256"
        },
        {
          "indexed": false,
          "internalType": "string",
          "name": "title",
          "type": "string"
        },
        {
          "indexed": false,
          "internalType": "uint256",
          "name": "amount",
          "type": "uint256"
        },
        {
          "indexed": false,
          "internalType": "address",
          "name": "creator",
          "type": "address"
        }
      ],
      "name": "ScholarshipCreated",
      "type": "event"
    },
    {
      "anonymous": false,
      "inputs": [
        {
          "indexed": true,
          "internalType": "uint256",
          "name": "id",
          "type": "uint256"
        },
        {
          "indexed": false,
          "internalType": "uint256",
          "name": "index",
          "type": "uint256"
        },
        {
          "indexed": false,
          "internalType": "address",
          "name": "verifier",
          "type": "address"
        },
        {
          "indexed": false,
          "internalType": "bool",
          "name": "isValid",
          "type": "bool"
        }
      ],
      "name": "Verified",
      "type": "event"
    },
    {
      "anonymous": false,
      "inputs": [
        {
          "indexed": true,
          "internalType": "address",
          "name": "verifier",
          "type": "address"
        }
      ],
      "name": "VerifierAdded",
      "type": "event"
    },
    {
      "anonymous": false,
      "inputs": [
        {
          "indexed": true,
          "internalType": "address",
          "name": "verifier",
          "type": "address"
        }
      ],
      "name": "VerifierRemoved",
      "type": "event"
    },
    {
      "inputs": [
        {
          "internalType": "address",
          "name": "_verifier",
          "type": "address"
        }
      ],
      "name": "addVerifier",
      "outputs": [],
      "stateMutability": "nonpayable",
      "type": "function"
    },
    {
      "inputs": [
        {
          "internalType": "uint256",
          "name": "",
          "type": "uint256"
        },
        {
          "internalType": "uint256",
          "name": "",
          "type": "uint256"
        }
      ],
      "name": "applications",
      "outputs": [
        {
          "internalType": "address",
          "name": "applicant",
          "type": "address"
        },
        {
          "internalType": "string",
          "name": "metadata",
          "type": "string"
        },
        {
          "internalType": "enum ScholarshipManager.Status",
          "name": "status",
          "type": "uint8"
        }
      ],
      "stateMutability": "view",
      "type": "function"
    },
    {
      "inputs": [
        {
          "internalType": "uint256",
          "name": "scholarshipId",
          "type": "uint256"
        },
        {
          "internalType": "string",
          "name": "metadata",
          "type": "string"
        }
      ],
      "name": "applyForScholarship",
      "outputs": [],
      "stateMutability": "nonpayable",
      "type": "function"
    },
    {
      "inputs": [
        {
          "internalType": "uint256",
          "name": "scholarshipId",
          "type": "uint256"
        },
        {
          "internalType": "uint256",
          "name": "index",
          "type": "uint256"
        }
      ],
      "name": "approveApplicant",
      "outputs": [],
      "stateMutability": "nonpayable",
      "type": "function"
    },
    {
      "inputs": [
        {
          "internalType": "string",
          "name": "title",
          "type": "string"
        },
        {
          "internalType": "uint256",
          "name": "amount",
          "type": "uint256"
        },
        {
          "internalType": "uint256",
          "name": "slots",
          "type": "uint256"
        },
        {
          "internalType": "uint256",
          "name": "deadline",
          "type": "uint256"
        },
        {
          "internalType": "string",
          "name": "description",
          "type": "string"
        }
      ],
      "name": "createScholarship",
      "outputs": [],
      "stateMutability": "nonpayable",
      "type": "function"
    },
    {
      "inputs": [],
      "name": "getVerifierList",
      "outputs": [
        {
          "internalType": "address[]",
          "name": "",
          "type": "address[]"
        }
      ],
      "stateMutability": "view",
      "type": "function"
    },
    {
      "inputs": [
        {
          "internalType": "address",
          "name": "",
          "type": "address"
        }
      ],
      "name": "isVerifier",
      "outputs": [
        {
          "internalType": "bool",
          "name": "",
          "type": "bool"
        }
      ],
      "stateMutability": "view",
      "type": "function"
    },
    {
      "inputs": [],
      "name": "nextScholarshipId",
      "outputs": [
        {
          "internalType": "uint256",
          "name": "",
          "type": "uint256"
        }
      ],
      "stateMutability": "view",
      "type": "function"
    },
    {
      "inputs": [],
      "name": "owner",
      "outputs": [
        {
          "internalType": "address",
          "name": "",
          "type": "address"
        }
      ],
      "stateMutability": "view",
      "type": "function"
    },
    {
      "inputs": [
        {
          "internalType": "uint256",
          "name": "scholarshipId",
          "type": "uint256"
        },
        {
          "internalType": "uint256",
          "name": "index",
          "type": "uint256"
        }
      ],
      "name": "payApplicant",
      "outputs": [],
      "stateMutability": "nonpayable",
      "type": "function"
    },
    {
      "inputs": [],
      "name": "paymentToken",
      "outputs": [
        {
          "internalType": "contract IERC20",
          "name": "",
          "type": "address"
        }
      ],
      "stateMutability": "view",
      "type": "function"
    },
    {
      "inputs": [
        {
          "internalType": "address",
          "name": "_verifier",
          "type": "address"
        }
      ],
      "name": "removeVerifier",
      "outputs": [],
      "stateMutability": "nonpayable",
      "type": "function"
    },
    {
      "inputs": [],
      "name": "renounceOwnership",
      "outputs": [],
      "stateMutability": "nonpayable",
      "type": "function"
    },
    {
      "inputs": [
        {
          "internalType": "uint256",
          "name": "",
          "type": "uint256"
        }
      ],
      "name": "scholarships",
      "outputs": [
        {
          "internalType": "uint256",
          "name": "id",
          "type": "uint256"
        },
        {
          "internalType": "string",
          "name": "title",
          "type": "string"
        },
        {
          "internalType": "uint256",
          "name": "amount",
          "type": "uint256"
        },
        {
          "internalType": "uint256",
          "name": "slots",
          "type": "uint256"
        },
        {
          "internalType": "uint256",
          "name": "filledSlots",
          "type": "uint256"
        },
        {
          "internalType": "uint256",
          "name": "deadline",
          "type": "uint256"
        },
        {
          "internalType": "string",
          "name": "description",
          "type": "string"
        },
        {
          "internalType": "uint256",
          "name": "totalApplicants",
          "type": "uint256"
        },
        {
          "internalType": "address",
          "name": "creator",
          "type": "address"
        }
      ],
      "stateMutability": "view",
      "type": "function"
    },
    {
      "inputs": [
        {
          "internalType": "address",
          "name": "newOwner",
          "type": "address"
        }
      ],
      "name": "transferOwnership",
      "outputs": [],
      "stateMutability": "nonpayable",
      "type": "function"
    },
    {
      "inputs": [
        {
          "internalType": "uint256",
          "name": "",
          "type": "uint256"
        }
      ],
      "name": "verifierList",
      "outputs": [
        {
          "internalType": "address",
          "name": "",
          "type": "address"
        }
      ],
      "stateMutability": "view",
      "type": "function"
    },
    {
      "inputs": [
        {
          "internalType": "uint256",
          "name": "scholarshipId",
          "type": "uint256"
        },
        {
          "internalType": "uint256",
          "name": "index",
          "type": "uint256"
        },
        {
          "internalType": "bool",
          "name": "isValid",
          "type": "bool"
        }
      ],
      "name": "verifyApplicant",
      "outputs": [],
      "stateMutability": "nonpayable",
      "type": "function"
    }
  ],
  "bytecode": "0x60806040523480156200001157600080fd5b506040516200349638038062003496833981810160405281019062000037919062000471565b7321143185abb050330f6da0b5c3f1089a0ab6de93600073ffffffffffffffffffffffffffffffffffffffff168173ffffffffffffffffffffffffffffffffffffffff1603620000c15760006040517f1e4fbdf7000000000000000000000000000000000000000000000000000000008152600401620000b89190620004b4565b60405180910390fd5b620000d281620001b260201b60201c565b50600073ffffffffffffffffffffffffffffffffffffffff168173ffffffffffffffffffffffffffffffffffffffff160362000145576040517f08c379a00000000000000000000000000000000000000000000000000000000081526004016200013c9062000532565b60405180910390fd5b80600160006101000a81548173ffffffffffffffffffffffffffffffffffffffff021916908373ffffffffffffffffffffffffffffffffffffffff160217905550620001ab7321143185abb050330f6da0b5c3f1089a0ab6de936200027660201b60201c565b50620005c6565b60008060009054906101000a900473ffffffffffffffffffffffffffffffffffffffff169050816000806101000a81548173ffffffffffffffffffffffffffffffffffffffff021916908373ffffffffffffffffffffffffffffffffffffffff1602179055508173ffffffffffffffffffffffffffffffffffffffff168173ffffffffffffffffffffffffffffffffffffffff167f8be0079c531659141344cd1fd0a4f28419497f9722a3daafe3b4186f6b6457e060405160405180910390a35050565b600260008273ffffffffffffffffffffffffffffffffffffffff1673ffffffffffffffffffffffffffffffffffffffff16815260200190815260200160002060009054906101000a900460ff161562000306576040517f08c379a0000000000000000000000000000000000000000000000000000000008152600401620002fd90620005a4565b60405180910390fd5b6001600260008373ffffffffffffffffffffffffffffffffffffffff1673ffffffffffffffffffffffffffffffffffffffff16815260200190815260200160002060006101000a81548160ff0219169083151502179055506003819080600181540180825580915050600190039060005260206000200160009091909190916101000a81548173ffffffffffffffffffffffffffffffffffffffff021916908373ffffffffffffffffffffffffffffffffffffffff1602179055508073ffffffffffffffffffffffffffffffffffffffff167f6d05492139c5ea989514a5d2150c028041e5c087e2a39967f67dc7d2655adb8160405160405180910390a250565b600080fd5b600073ffffffffffffffffffffffffffffffffffffffff82169050919050565b600062000439826200040c565b9050919050565b6200044b816200042c565b81146200045757600080fd5b50565b6000815190506200046b8162000440565b92915050565b6000602082840312156200048a576200048962000407565b5b60006200049a848285016200045a565b91505092915050565b620004ae816200042c565b82525050565b6000602082019050620004cb6000830184620004a3565b92915050565b600082825260208201905092915050565b7f4469612063686920546f6b656e206b686f6e6720686f70206c65000000000000600082015250565b60006200051a601a83620004d1565b91506200052782620004e2565b602082019050919050565b600060208201905081810360008301526200054d816200050b565b9050919050565b7f5669206e6179206461206c61205472756f6e6720726f69000000000000000000600082015250565b60006200058c601783620004d1565b9150620005998262000554565b602082019050919050565b60006020820190508181036000830152620005bf816200057d565b9050919050565b612ec080620005d66000396000f3fe608060405234801561001057600080fd5b506004361061010b5760003560e01c806372b4f6fe116100a2578063c6c08a5811610071578063c6c08a58146102ae578063ca2dfd0a146102ca578063d84c01b3146102e6578063ee0866f414610304578063f2fde38b146103205761010b565b806372b4f6fe146102265780637a870b63146102425780638da5cb5b146102745780639000b3d6146102925761010b565b80633a2146b8116100de5780633a2146b8146101b457806357762ddd146101d0578063599ed91814610200578063715018a61461021c5761010b565b80632b5d12e1146101105780633013ce291461012e578063331052181461014c57806339dc58c61461017c575b600080fd5b61011861033c565b6040516101259190611b5f565b60405180910390f35b6101366103ca565b6040516101439190611be0565b60405180910390f35b61016660048036038101906101619190611c3b565b6103f0565b6040516101739190611c83565b60405180910390f35b61019660048036038101906101919190611cd4565b610410565b6040516101ab99989796959493929190611daf565b60405180910390f35b6101ce60048036038101906101c99190611e4a565b61058e565b005b6101ea60048036038101906101e59190611cd4565b6107f4565b6040516101f79190611e8a565b60405180910390f35b61021a60048036038101906102159190611ed1565b610833565b005b610224610a16565b005b610240600480360381019061023b9190611e4a565b610a2a565b005b61025c60048036038101906102579190611e4a565b610e3f565b60405161026b93929190611f9b565b60405180910390f35b61027c610f3b565b6040516102899190611e8a565b60405180910390f35b6102ac60048036038101906102a79190611c3b565b610f64565b005b6102c860048036038101906102c3919061210e565b610f78565b005b6102e460048036038101906102df9190611c3b565b611147565b005b6102ee611406565b6040516102fb919061216a565b60405180910390f35b61031e60048036038101906103199190612185565b61140c565b005b61033a60048036038101906103359190611c3b565b611708565b005b606060038054806020026020016040519081016040528092919081815260200182805480156103c057602002820191906000526020600020905b8160009054906101000a900473ffffffffffffffffffffffffffffffffffffffff1673ffffffffffffffffffffffffffffffffffffffff1681526020019060010190808311610376575b5050505050905090565b600160009054906101000a900473ffffffffffffffffffffffffffffffffffffffff1681565b60026020528060005260406000206000915054906101000a900460ff1681565b600560205280600052604060002060009150905080600001549080600101805461043990612267565b80601f016020809104026020016040519081016040528092919081815260200182805461046590612267565b80156104b25780601f10610487576101008083540402835291602001916104b2565b820191906000526020600020905b81548152906001019060200180831161049557829003601f168201915b5050505050908060020154908060030154908060040154908060050154908060060180546104df90612267565b80601f016020809104026020016040519081016040528092919081815260200182805461050b90612267565b80156105585780601f1061052d57610100808354040283529160200191610558565b820191906000526020600020905b81548152906001019060200180831161053b57829003601f168201915b5050505050908060070154908060080160009054906101000a900473ffffffffffffffffffffffffffffffffffffffff16905089565b60006005600084815260200190815260200160002090508060080160009054906101000a900473ffffffffffffffffffffffffffffffffffffffff1673ffffffffffffffffffffffffffffffffffffffff163373ffffffffffffffffffffffffffffffffffffffff1614806106355750610606610f3b565b73ffffffffffffffffffffffffffffffffffffffff163373ffffffffffffffffffffffffffffffffffffffff16145b610674576040517f08c379a000000000000000000000000000000000000000000000000000000000815260040161066b906122e4565b60405180910390fd5b600060066000858152602001908152602001600020838154811061069b5761069a612304565b5b90600052602060002090600302019050600260058111156106bf576106be611f24565b5b8160020160009054906101000a900460ff1660058111156106e3576106e2611f24565b5b14610723576040517f08c379a000000000000000000000000000000000000000000000000000000000815260040161071a9061237f565b60405180910390fd5b816003015482600401541061076d576040517f08c379a0000000000000000000000000000000000000000000000000000000008152600401610764906123eb565b60405180910390fd5b60038160020160006101000a81548160ff0219169083600581111561079557610794611f24565b5b02179055508160040160008154809291906107af9061243a565b9190505550837f682ae4846084697482c0c2f8bff7dbfabb0c282e5717a24f740f3026a655789b84336040516107e6929190612482565b60405180910390a250505050565b6003818154811061080457600080fd5b906000526020600020016000915054906101000a900473ffffffffffffffffffffffffffffffffffffffff1681565b600260003373ffffffffffffffffffffffffffffffffffffffff1673ffffffffffffffffffffffffffffffffffffffff16815260200190815260200160002060009054906101000a900460ff166108bf576040517f08c379a00000000000000000000000000000000000000000000000000000000081526004016108b6906124f7565b60405180910390fd5b60006006600085815260200190815260200160002083815481106108e6576108e5612304565b5b906000526020600020906003020190506001600581111561090a57610909611f24565b5b8160020160009054906101000a900460ff16600581111561092e5761092d611f24565b5b1461096e576040517f08c379a000000000000000000000000000000000000000000000000000000000815260040161096590612589565b60405180910390fd5b81156109a65760028160020160006101000a81548160ff0219169083600581111561099c5761099b611f24565b5b02179055506109d4565b60058160020160006101000a81548160ff021916908360058111156109ce576109cd611f24565b5b02179055505b837f72d80811aca886dc9144f79cf7a3751de868ba19c3b5141033e90b9fe6cfe913843385604051610a08939291906125a9565b60405180910390a250505050565b610a1e61178e565b610a286000611815565b565b60006005600084815260200190815260200160002090508060080160009054906101000a900473ffffffffffffffffffffffffffffffffffffffff1673ffffffffffffffffffffffffffffffffffffffff163373ffffffffffffffffffffffffffffffffffffffff161480610ad15750610aa2610f3b565b73ffffffffffffffffffffffffffffffffffffffff163373ffffffffffffffffffffffffffffffffffffffff16145b610b10576040517f08c379a0000000000000000000000000000000000000000000000000000000008152600401610b079061262c565b60405180910390fd5b6000600660008581526020019081526020016000208381548110610b3757610b36612304565b5b9060005260206000209060030201905060036005811115610b5b57610b5a611f24565b5b8160020160009054906101000a900460ff166005811115610b7f57610b7e611f24565b5b14610bbf576040517f08c379a0000000000000000000000000000000000000000000000000000000008152600401610bb690612698565b60405180910390fd5b8160020154600160009054906101000a900473ffffffffffffffffffffffffffffffffffffffff1673ffffffffffffffffffffffffffffffffffffffff166370a08231306040518263ffffffff1660e01b8152600401610c1f9190611e8a565b602060405180830381865afa158015610c3c573d6000803e3d6000fd5b505050506040513d601f19601f82011682018060405250810190610c6091906126cd565b1015610ca1576040517f08c379a0000000000000000000000000000000000000000000000000000000008152600401610c9890612746565b60405180910390fd5b60048160020160006101000a81548160ff02191690836005811115610cc957610cc8611f24565b5b0217905550600160009054906101000a900473ffffffffffffffffffffffffffffffffffffffff1673ffffffffffffffffffffffffffffffffffffffff1663a9059cbb8260000160009054906101000a900473ffffffffffffffffffffffffffffffffffffffff1684600201546040518363ffffffff1660e01b8152600401610d53929190612766565b6020604051808303816000875af1158015610d72573d6000803e3d6000fd5b505050506040513d601f19601f82011682018060405250810190610d9691906127a4565b610dd5576040517f08c379a0000000000000000000000000000000000000000000000000000000008152600401610dcc9061281d565b60405180910390fd5b837f8a932cfa1f2c4405ecf83ef9b014d4e08b84019e45aac0cfa6936bc57668e425848360000160009054906101000a900473ffffffffffffffffffffffffffffffffffffffff168560020154604051610e319392919061283d565b60405180910390a250505050565b60066020528160005260406000208181548110610e5b57600080fd5b9060005260206000209060030201600091509150508060000160009054906101000a900473ffffffffffffffffffffffffffffffffffffffff1690806001018054610ea590612267565b80601f0160208091040260200160405190810160405280929190818152602001828054610ed190612267565b8015610f1e5780601f10610ef357610100808354040283529160200191610f1e565b820191906000526020600020905b815481529060010190602001808311610f0157829003601f168201915b5050505050908060020160009054906101000a900460ff16905083565b60008060009054906101000a900473ffffffffffffffffffffffffffffffffffffffff16905090565b610f6c61178e565b610f75816118d9565b50565b600060056000848152602001908152602001600020905042816005015411610fd5576040517f08c379a0000000000000000000000000000000000000000000000000000000008152600401610fcc906128c0565b60405180910390fd5b6006600084815260200190815260200160002060405180606001604052803373ffffffffffffffffffffffffffffffffffffffff1681526020018481526020016001600581111561102957611028611f24565b5b815250908060018154018082558091505060019003906000526020600020906003020160009091909190915060008201518160000160006101000a81548173ffffffffffffffffffffffffffffffffffffffff021916908373ffffffffffffffffffffffffffffffffffffffff16021790555060208201518160010190816110b19190612a82565b5060408201518160020160006101000a81548160ff021916908360058111156110dd576110dc611f24565b5b021790555050508060070160008154809291906110f99061243a565b91905055503373ffffffffffffffffffffffffffffffffffffffff16837f8e536842b0bedb99bbe3d9b2f4d7cd3c1d89955698940f266371b4d4f5caa25760405160405180910390a3505050565b61114f61178e565b600260008273ffffffffffffffffffffffffffffffffffffffff1673ffffffffffffffffffffffffffffffffffffffff16815260200190815260200160002060009054906101000a900460ff166111db576040517f08c379a00000000000000000000000000000000000000000000000000000000081526004016111d290612ba0565b60405180910390fd5b6000600260008373ffffffffffffffffffffffffffffffffffffffff1673ffffffffffffffffffffffffffffffffffffffff16815260200190815260200160002060006101000a81548160ff02191690831515021790555060005b6003805490508110156113bf578173ffffffffffffffffffffffffffffffffffffffff166003828154811061126e5761126d612304565b5b9060005260206000200160009054906101000a900473ffffffffffffffffffffffffffffffffffffffff1673ffffffffffffffffffffffffffffffffffffffff16036113ac57600360016003805490506112c89190612bc0565b815481106112d9576112d8612304565b5b9060005260206000200160009054906101000a900473ffffffffffffffffffffffffffffffffffffffff166003828154811061131857611317612304565b5b9060005260206000200160006101000a81548173ffffffffffffffffffffffffffffffffffffffff021916908373ffffffffffffffffffffffffffffffffffffffff160217905550600380548061137257611371612bf4565b5b6001900381819060005260206000200160006101000a81549073ffffffffffffffffffffffffffffffffffffffff021916905590556113bf565b80806113b79061243a565b915050611236565b508073ffffffffffffffffffffffffffffffffffffffff167f44a3cd4eb5cc5748f6169df057b1cb2ae4c383e87cd94663c430e095d4cba42460405160405180910390a250565b60045481565b42821161144e576040517f08c379a000000000000000000000000000000000000000000000000000000000815260040161144590612c6f565b60405180910390fd5b60008311611491576040517f08c379a000000000000000000000000000000000000000000000000000000000815260040161148890612cdb565b60405180910390fd5b6000838561149f9190612cfb565b90506000600160009054906101000a900473ffffffffffffffffffffffffffffffffffffffff1673ffffffffffffffffffffffffffffffffffffffff166323b872dd3330856040518463ffffffff1660e01b815260040161150293929190612d3d565b6020604051808303816000875af1158015611521573d6000803e3d6000fd5b505050506040513d601f19601f8201168201806040525081019061154591906127a4565b905080611587576040517f08c379a000000000000000000000000000000000000000000000000000000000815260040161157e90612dc0565b60405180910390fd5b604051806101200160405280600454815260200188815260200187815260200186815260200160008152602001858152602001848152602001600081526020013373ffffffffffffffffffffffffffffffffffffffff168152506005600060045481526020019081526020016000206000820151816000015560208201518160010190816116159190612a82565b5060408201518160020155606082015181600301556080820151816004015560a0820151816005015560c08201518160060190816116539190612a82565b5060e082015181600701556101008201518160080160006101000a81548173ffffffffffffffffffffffffffffffffffffffff021916908373ffffffffffffffffffffffffffffffffffffffff1602179055509050506004547fac28e804bbe82db64a513375773268e66a070ccda3b106c9ae1409ef8c4b37958888336040516116df93929190612de0565b60405180910390a2600460008154809291906116fa9061243a565b919050555050505050505050565b61171061178e565b600073ffffffffffffffffffffffffffffffffffffffff168173ffffffffffffffffffffffffffffffffffffffff16036117825760006040517f1e4fbdf70000000000000000000000000000000000000000000000000000000081526004016117799190611e8a565b60405180910390fd5b61178b81611815565b50565b611796611a67565b73ffffffffffffffffffffffffffffffffffffffff166117b4610f3b565b73ffffffffffffffffffffffffffffffffffffffff1614611813576117d7611a67565b6040517f118cdaa700000000000000000000000000000000000000000000000000000000815260040161180a9190611e8a565b60405180910390fd5b565b60008060009054906101000a900473ffffffffffffffffffffffffffffffffffffffff169050816000806101000a81548173ffffffffffffffffffffffffffffffffffffffff021916908373ffffffffffffffffffffffffffffffffffffffff1602179055508173ffffffffffffffffffffffffffffffffffffffff168173ffffffffffffffffffffffffffffffffffffffff167f8be0079c531659141344cd1fd0a4f28419497f9722a3daafe3b4186f6b6457e060405160405180910390a35050565b600260008273ffffffffffffffffffffffffffffffffffffffff1673ffffffffffffffffffffffffffffffffffffffff16815260200190815260200160002060009054906101000a900460ff1615611966576040517f08c379a000000000000000000000000000000000000000000000000000000000815260040161195d90612e6a565b60405180910390fd5b6001600260008373ffffffffffffffffffffffffffffffffffffffff1673ffffffffffffffffffffffffffffffffffffffff16815260200190815260200160002060006101000a81548160ff0219169083151502179055506003819080600181540180825580915050600190039060005260206000200160009091909190916101000a81548173ffffffffffffffffffffffffffffffffffffffff021916908373ffffffffffffffffffffffffffffffffffffffff1602179055508073ffffffffffffffffffffffffffffffffffffffff167f6d05492139c5ea989514a5d2150c028041e5c087e2a39967f67dc7d2655adb8160405160405180910390a250565b600033905090565b600081519050919050565b600082825260208201905092915050565b6000819050602082019050919050565b600073ffffffffffffffffffffffffffffffffffffffff82169050919050565b6000611ac682611a9b565b9050919050565b611ad681611abb565b82525050565b6000611ae88383611acd565b60208301905092915050565b6000602082019050919050565b6000611b0c82611a6f565b611b168185611a7a565b9350611b2183611a8b565b8060005b83811015611b52578151611b398882611adc565b9750611b4483611af4565b925050600181019050611b25565b5085935050505092915050565b60006020820190508181036000830152611b798184611b01565b905092915050565b6000819050919050565b6000611ba6611ba1611b9c84611a9b565b611b81565b611a9b565b9050919050565b6000611bb882611b8b565b9050919050565b6000611bca82611bad565b9050919050565b611bda81611bbf565b82525050565b6000602082019050611bf56000830184611bd1565b92915050565b6000604051905090565b600080fd5b600080fd5b611c1881611abb565b8114611c2357600080fd5b50565b600081359050611c3581611c0f565b92915050565b600060208284031215611c5157611c50611c05565b5b6000611c5f84828501611c26565b91505092915050565b60008115159050919050565b611c7d81611c68565b82525050565b6000602082019050611c986000830184611c74565b92915050565b6000819050919050565b611cb181611c9e565b8114611cbc57600080fd5b50565b600081359050611cce81611ca8565b92915050565b600060208284031215611cea57611ce9611c05565b5b6000611cf884828501611cbf565b91505092915050565b611d0a81611c9e565b82525050565b600081519050919050565b600082825260208201905092915050565b60005b83811015611d4a578082015181840152602081019050611d2f565b60008484015250505050565b6000601f19601f8301169050919050565b6000611d7282611d10565b611d7c8185611d1b565b9350611d8c818560208601611d2c565b611d9581611d56565b840191505092915050565b611da981611abb565b82525050565b600061012082019050611dc5600083018c611d01565b8181036020830152611dd7818b611d67565b9050611de6604083018a611d01565b611df36060830189611d01565b611e006080830188611d01565b611e0d60a0830187611d01565b81810360c0830152611e1f8186611d67565b9050611e2e60e0830185611d01565b611e3c610100830184611da0565b9a9950505050505050505050565b60008060408385031215611e6157611e60611c05565b5b6000611e6f85828601611cbf565b9250506020611e8085828601611cbf565b9150509250929050565b6000602082019050611e9f6000830184611da0565b92915050565b611eae81611c68565b8114611eb957600080fd5b50565b600081359050611ecb81611ea5565b92915050565b600080600060608486031215611eea57611ee9611c05565b5b6000611ef886828701611cbf565b9350506020611f0986828701611cbf565b9250506040611f1a86828701611ebc565b9150509250925092565b7f4e487b7100000000000000000000000000000000000000000000000000000000600052602160045260246000fd5b60068110611f6457611f63611f24565b5b50565b6000819050611f7582611f53565b919050565b6000611f8582611f67565b9050919050565b611f9581611f7a565b82525050565b6000606082019050611fb06000830186611da0565b8181036020830152611fc28185611d67565b9050611fd16040830184611f8c565b949350505050565b600080fd5b600080fd5b7f4e487b7100000000000000000000000000000000000000000000000000000000600052604160045260246000fd5b61201b82611d56565b810181811067ffffffffffffffff8211171561203a57612039611fe3565b5b80604052505050565b600061204d611bfb565b90506120598282612012565b919050565b600067ffffffffffffffff82111561207957612078611fe3565b5b61208282611d56565b9050602081019050919050565b82818337600083830152505050565b60006120b16120ac8461205e565b612043565b9050828152602081018484840111156120cd576120cc611fde565b5b6120d884828561208f565b509392505050565b600082601f8301126120f5576120f4611fd9565b5b813561210584826020860161209e565b91505092915050565b6000806040838503121561212557612124611c05565b5b600061213385828601611cbf565b925050602083013567ffffffffffffffff81111561215457612153611c0a565b5b612160858286016120e0565b9150509250929050565b600060208201905061217f6000830184611d01565b92915050565b600080600080600060a086880312156121a1576121a0611c05565b5b600086013567ffffffffffffffff8111156121bf576121be611c0a565b5b6121cb888289016120e0565b95505060206121dc88828901611cbf565b94505060406121ed88828901611cbf565b93505060606121fe88828901611cbf565b925050608086013567ffffffffffffffff81111561221f5761221e611c0a565b5b61222b888289016120e0565b9150509295509295909350565b7f4e487b7100000000000000000000000000000000000000000000000000000000600052602260045260246000fd5b6000600282049050600182168061227f57607f821691505b60208210810361229257612291612238565b5b50919050565b7f4b686f6e6720706861692063687520736f206875750000000000000000000000600082015250565b60006122ce601583611d1b565b91506122d982612298565b602082019050919050565b600060208201905081810360008301526122fd816122c1565b9050919050565b7f4e487b7100000000000000000000000000000000000000000000000000000000600052603260045260246000fd5b7f486f20736f20636875612064756f63205472756f6e6720786163206e68616e00600082015250565b6000612369601f83611d1b565b915061237482612333565b602082019050919050565b600060208201905081810360008301526123988161235c565b9050919050565b7f486f6320626f6e67206461206865742073756174000000000000000000000000600082015250565b60006123d5601483611d1b565b91506123e08261239f565b602082019050919050565b60006020820190508181036000830152612404816123c8565b9050919050565b7f4e487b7100000000000000000000000000000000000000000000000000000000600052601160045260246000fd5b600061244582611c9e565b91507fffffffffffffffffffffffffffffffffffffffffffffffffffffffffffffffff82036124775761247661240b565b5b600182019050919050565b60006040820190506124976000830185611d01565b6124a46020830184611da0565b9392505050565b7f42616e206b686f6e672070686169204e6861207472756f6e6700000000000000600082015250565b60006124e1601983611d1b565b91506124ec826124ab565b602082019050919050565b60006020820190508181036000830152612510816124d4565b9050919050565b7f5472616e672074686169206b686f6e6720686f70206c65202850686169206c6160008201527f204170706c696564290000000000000000000000000000000000000000000000602082015250565b6000612573602983611d1b565b915061257e82612517565b604082019050919050565b600060208201905081810360008301526125a281612566565b9050919050565b60006060820190506125be6000830186611d01565b6125cb6020830185611da0565b6125d86040830184611c74565b949350505050565b7f4b686f6e6720636f20717579656e000000000000000000000000000000000000600082015250565b6000612616600e83611d1b565b9150612621826125e0565b602082019050919050565b6000602082019050818103600083015261264581612609565b9050919050565b7f486f20736f20636875612064756f632064757965742028417070726f76656429600082015250565b6000612682602083611d1b565b915061268d8261264c565b602082019050919050565b600060208201905081810360008301526126b181612675565b9050919050565b6000815190506126c781611ca8565b92915050565b6000602082840312156126e3576126e2611c05565b5b60006126f1848285016126b8565b91505092915050565b7f436f6e747261637420686574207469656e000000000000000000000000000000600082015250565b6000612730601183611d1b565b915061273b826126fa565b602082019050919050565b6000602082019050818103600083015261275f81612723565b9050919050565b600060408201905061277b6000830185611da0565b6127886020830184611d01565b9392505050565b60008151905061279e81611ea5565b92915050565b6000602082840312156127ba576127b9611c05565b5b60006127c88482850161278f565b91505092915050565b7f43687579656e207469656e207468617420626169000000000000000000000000600082015250565b6000612807601483611d1b565b9150612812826127d1565b602082019050919050565b60006020820190508181036000830152612836816127fa565b9050919050565b60006060820190506128526000830186611d01565b61285f6020830185611da0565b61286c6040830184611d01565b949350505050565b7f4865742068616e206e6f70000000000000000000000000000000000000000000600082015250565b60006128aa600b83611d1b565b91506128b582612874565b602082019050919050565b600060208201905081810360008301526128d98161289d565b9050919050565b60008190508160005260206000209050919050565b60006020601f8301049050919050565b600082821b905092915050565b6000600883026129427fffffffffffffffffffffffffffffffffffffffffffffffffffffffffffffffff82612905565b61294c8683612905565b95508019841693508086168417925050509392505050565b600061297f61297a61297584611c9e565b611b81565b611c9e565b9050919050565b6000819050919050565b61299983612964565b6129ad6129a582612986565b848454612912565b825550505050565b600090565b6129c26129b5565b6129cd818484612990565b505050565b5b818110156129f1576129e66000826129ba565b6001810190506129d3565b5050565b601f821115612a3657612a07816128e0565b612a10846128f5565b81016020851015612a1f578190505b612a33612a2b856128f5565b8301826129d2565b50505b505050565b600082821c905092915050565b6000612a5960001984600802612a3b565b1980831691505092915050565b6000612a728383612a48565b9150826002028217905092915050565b612a8b82611d10565b67ffffffffffffffff811115612aa457612aa3611fe3565b5b612aae8254612267565b612ab98282856129f5565b600060209050601f831160018114612aec5760008415612ada578287015190505b612ae48582612a66565b865550612b4c565b601f198416612afa866128e0565b60005b82811015612b2257848901518255600182019150602085019450602081019050612afd565b86831015612b3f5784890151612b3b601f891682612a48565b8355505b6001600288020188555050505b505050505050565b7f5669206e6179206b686f6e672070686169206c61205472756f6e670000000000600082015250565b6000612b8a601b83611d1b565b9150612b9582612b54565b602082019050919050565b60006020820190508181036000830152612bb981612b7d565b9050919050565b6000612bcb82611c9e565b9150612bd683611c9e565b9250828203905081811115612bee57612bed61240b565b5b92915050565b7f4e487b7100000000000000000000000000000000000000000000000000000000600052603160045260246000fd5b7f446561646c696e652070686169206f2074756f6e67206c616900000000000000600082015250565b6000612c59601983611d1b565b9150612c6482612c23565b602082019050919050565b60006020820190508181036000830152612c8881612c4c565b9050919050565b7f536f206c756f6e672073756174203e2030000000000000000000000000000000600082015250565b6000612cc5601183611d1b565b9150612cd082612c8f565b602082019050919050565b60006020820190508181036000830152612cf481612cb8565b9050919050565b6000612d0682611c9e565b9150612d1183611c9e565b9250828202612d1f81611c9e565b91508282048414831517612d3657612d3561240b565b5b5092915050565b6000606082019050612d526000830186611da0565b612d5f6020830185611da0565b612d6c6040830184611d01565b949350505050565b7f4c6f692063687579656e207469656e2028436865636b20417070726f76652900600082015250565b6000612daa601f83611d1b565b9150612db582612d74565b602082019050919050565b60006020820190508181036000830152612dd981612d9d565b9050919050565b60006060820190508181036000830152612dfa8186611d67565b9050612e096020830185611d01565b612e166040830184611da0565b949350505050565b7f5669206e6179206461206c61205472756f6e6720726f69000000000000000000600082015250565b6000612e54601783611d1b565b9150612e5f82612e1e565b602082019050919050565b60006020820190508181036000830152612e8381612e47565b905091905056fea2646970667358221220db14289c16a69ce72c1cb26a72cf382421b8d226138c10a901166ebc105a97e964736f6c63430008140033",
  "linkReferences": {},
  "deployedLinkReferences": {}
}